:020000040800F2
:1000000000800120F5120008451300084513000880
:1000100045130008451300084513000800000000C0
:100020000000000000000000000000004513000870
:100030004513000800000000451300087711000870
:100040004513000845130008451300084513000830
:100050004513000845130008451300084513000820
:100060004513000845130008451300084513000810
:100070004513000845130008451300084513000800
:1000800045130008451300084513000845130008F0
:1000900045130008451300084513000845130008E0
:1000A00045130008451300084513000845130008D0
:1000B00045130008451300084513000845130008C0
:1000C00045130008451300084513000845130008B0
:1000D00045130008451300084513000845130008A0
:1000E0004513000845130008451300084513000890
:1000F0004513000845130008451300084513000880
:10010000451300084513000845130008451300086F
:10011000451300084513000845130008451300085F
:10012000451300084513000845130008451300084F
:10013000451300084513000845130008451300083F
:10014000451300084513000845130008451300082F
:10015000451300084513000845130008451300081F
:10016000451300084513000845130008451300080F
:10017000451300084513000845130008000000005F
:080180004513000845130008B7
:1001880010B5054C237833B9044B13B10448AFF3C9
:1001980000800123237010BD100000200000000023
:1001A8009013000808B5034B1BB103490348AFF38C
:1001B800008008BD00000000140000209013000813
:1001C80053B94AB9002908BF00281CBF4FF0FF31B6
:1001D8004FF0FF3000F072B9ADF1080C6DE904CEB4
:1001E80000F006F8DDF804E0DDE9022304B070470A
:1001F8002DE9F047089E04468846002B4BD18A42D9
:10020800154667D9B2FA82F24AB1C2F1200701FA5B
:1002180002F320FA07F7954047EA030894404FEAAB
:10022800154E230CB8FBFEF71FFA85FC0EFB17884A
:1002380043EA084307FB0CF1994209D9EB1807F187
:10024800FF3080F01B81994240F21881023F2B4415
:100258005B1AA4B2B3FBFEF00EFB103344EA03446E
:1002680000FB0CFCA44509D92C1900F1FF3380F0E0
:100278000781A44540F2048102382C4440EA074033
:10028800A4EB0C0400271EB1D4400023C6E90043A8
:100298003946BDE8F0878B4209D9002E00F0EB8083
:1002A8000027C6E9000138463946BDE8F087B3FAA9
:1002B80083F7002F47D18B4202D3824200F2FA80A3
:1002C800841A61EB030301209846002EE0D0C6E9AA
:1002D8000048DDE702B9FFDEB2FA82F2002A40F0F8
:1002E8008F80491B4FEA154E1FFA85F80127B1FB8D
:1002F800FEFC230C0EFB1C1143EA014308FB0CF126
:10030800994207D9EB180CF1FF3002D2994200F25A
:10031800CD808446591AA3B2B1FBFEF00EFB10142F
:1003280043EA044408FB00F8A04507D92C1900F15A
:10033800FF3302D2A04500F2B6801846A4EB0804A9
:1003480040EA0C409FE7C7F1200CBB4022FA0CFEA4
:100358004EEA030E01FA07F420FA0CF521FA0CF321
:100368004FEA1E482543B3FBF8F92C0C08FB193358
:100378001FFA8EFA44EA034309FB0AF49C4202FA84
:1003880007F200FA07F10BD91EEB030309F1FF305E
:1003980080F087809C4240F28480A9F1020973446E
:1003A8001B1BADB2B3FBF8F008FB103345EA03445E
:1003B80000FB0AFAA24508D91EEB040400F1FF333A
:1003C8006BD2A24569D90238744440EA0940A0FBBF
:1003D8000289A4EB0A044C45C2464B4654D351D07B
:1003E800002E69D0B1EB0A0564EB030404FA0CFC97
:1003F800FD40FC404CEA0505C6E90054002747E7E4
:10040800C2F1200320FA03F7954001FA02F021FA1D
:1004180003F34FEA154E3843010CB3FBFEF71FFAFE
:1004280085F80EFB173341EA034107FB08F38B42BB
:1004380004FA02F407D9691807F1FF3C2FD28B425E
:100448002DD9023F2944CB1A81B2B3FBFEF00EFB33
:10045800103341EA034100FB08F38B4207D96918BE
:1004680000F1FF3C17D28B4215D902382944C91A2A
:1004780040EA07473BE73746304609E70746E7E6DD
:100488001846FBE64145ABD2B8EB020A69EB0E020F
:1004980001381346A4E76046E9E7184695E767463A
:1004A800D1E781467CE702382C4447E7ACF1020CDF
:1004B8002B442FE7384608E73746E9E6704700BF80
:1004C800034613F8012B002AFBD1181A013870478C
:1004D80070470000104B1B680BB90120704710B51E
:1004E80004464FF47A70B0FBF3F30C4A1068B0FB83
:1004F800F3F000F091F868B90F2C01D901200AE057
:10050800002221464FF0FF3000F044F8024B5C60B7
:10051800002000E0012010BD000000200C00002099
:1005280010B5094A136843F480731360032000F080
:100538001FF80020FFF7CEFF10B10124204610BDA0
:100548000446FFF7C5FFF9E700200240034A136895
:10055800034909680B441360704700BF2C00002052
:1005680000000020014B1868704700BF2C000020D5
:10057800074AD36823F4E0631B041B0C000200F451
:10058800E060184340F0BF6040F40030D06070472E
:1005980000ED00E030B4174BDB68C3F30223C3F16E
:1005A8000704042C28BF04241D1D062D18D9033B5D
:1005B8004FF0FF3505FA04F421EA0401994005FAE1
:1005C80003F322EA0303194300280BDB0901C9B22C
:1005D80000F1604000F5614080F8001330BC7047BE
:1005E8000023E5E700F00F000901C9B2024B1954D6
:1005F800F4E700BF00ED00E014ED00E0002807DBA1
:1006080000F01F02400901239340024A42F82030BB
:10061800704700BF00E100E00138B0F1807F0AD2E6
:10062800064B5860064AF02182F823100020986093
:1006380007221A6070470120704700BF10E000E0F1
:1006480000ED00E0704708B5FFF7FCFF08BD0000AB
:10065800F0B583B000233FE0C66A26EA0406C5F376
:10066800C0049C403443C4625FE0062400E00024D8
:10067800B4403C430235644E46F82540634C256837
:10068800D44304EA05064F6817F4803F01D042EAD4
:1006980005065E4D2E606D6804EA05064F6817F47E
:1006A800003F01D042EA0506584D6E60AD6804EA85
:1006B80005064F6817F4801F01D042EA0506534D1E
:1006C800AE60ED682C404E6816F4001F01D042EA77
:1006D80005044E4AD46001330A6832FA03F400F084
:1006E800918001249C402240F5D04D686E1E012E59
:1006F80003D9112D01D0122D12D186685F00032570
:10070800BD4026EA0506CD68BD403543856046688C
:1007180026EA04064D68C5F300159D40354345603B
:100728004D6805F00306032E96D0C5685F000324C4
:10073800BC40E44325408E68BE402E43C6604D68E9
:10074800022D01D0122D13D1DE08083650F826E00C
:1007580003F007054FEA850C0F2505FA0CF52EEA7C
:10076800050E0D6905FA0CF545EA0E0540F8265008
:1007780005682C404D6805F00305BD402C43046016
:100788004C6814F0805FA6D0214C256E45F0010519
:100798002566246E04F001040194019C9D08AE1C9A
:1007A800194C54F8267003F00304A6000F24B44033
:1007B80027EA0407B0F1904F3FF459AF154CA04217
:1007C80016D004F58064A04214D004F58064A042D9
:1007D80012D004F58064A04210D004F58064A042D1
:1007E8000ED004F58064A0423FF43FAF07243FE7F2
:1007F80001243DE702243BE7032439E7042437E7D3
:10080800052435E703B0F0BD0000014000040140B5
:100818000010024000040048284A9368D26802F099
:10082800030213F00C030AD00C2B06D0042B1FD0A4
:10083800082B20D00020024610E0012AF6D11F4ADA
:10084800126812F0080F0CD11C4AD2F89420C2F397
:1008580003221B4951F8222043B100200C2B0DD054
:100868007047164A1268C2F30312F2E71046F5E71A
:1008780014480022F2E714480022EFE70F4BDB6828
:1008880003F00303022B15D0032B15D00B4BD868AC
:10089800C0F302100130D968C1F3062102FB01F24E
:1008A800B2FBF0F2D868C0F3416001304000B2FBFF
:1008B800F0F0D5E7034AE9E7034AE7E7001002400A
:1008C800A81300080024F40000127A00014B1868ED
:1008D800704700BF0C00002008B5FFF7F7FF054B75
:1008E8009B68C3F30223044AD35C03F01F03D84078
:1008F80008BD00BF00100240E813000808B5FFF764
:10090800E5FF054B9B68C3F3C223044AD35C03F09D
:100918001F03D84008BD00BF00100240E8130008BC
:100928002DE9F04804460168836802691343426967
:100938001343C26913430868A24A024013430B6079
:100948002268536823F44053E1680B435360A1695C
:1009580022689D4B9A4201D0236A1943936823F475
:1009680030630B4393602368984A934227D0984A90
:10097800934238D0974A93424ED0974A934261D0D7
:10098800964A934274D0904A934200F08A80102588
:100998008D4A934200F0AA80E369B3F5004F00F056
:1009A8003581082D00F2BF81DFE815F07F01950140
:1009B8009F01BD01AA01BD01BD01BD01B40102F540
:1009C8005842D2F8882002F00302032A09D8DFE847
:1009D80002F0020481060125DAE70425D8E7082594
:1009E800D6E71025D4E702F5E632D2F8882002F0DF
:1009F8000C020C2A0ED8DFE802F0070D0D0D090DC8
:100A08000D0D6F0D0D0D0B000025C1E70425BFE787
:100A18000825BDE71025BBE702F5E432D2F88820A7
:100A280002F03002102A09D005D9202A56D0302ADF
:100A380006D10825ACE71AB90025A9E70425A7E7D8
:100A48001025A5E702F5E232D2F8882002F0C002AC
:100A5800402A09D005D9802A42D0C02A06D10825C3
:100A680096E71AB9002593E7042591E710258FE743
:100A780002F5E032D2F8882002F44072B2F5807FA5
:100A88000BD007D9B2F5007F2CD0B2F5407F06D144
:100A980008257DE71AB900257AE7042578E71025A7
:100AA80076E702F5C832D2F8882002F44062B2F53F
:100AB800806F0BD007D9B2F5006F15D0B2F5406F33
:100AC80006D1082564E71AB9002561E704255FE720
:100AD80010255DE702255BE7022559E7022557E760
:100AE800022555E7022553E7022551E7082D00F2B4
:100AF8001D81DFE815F00C001B0114001B0111001B
:100B08001B011B011B0109004FF4004008E0FFF71F
:100B1800E3FE28B90020D9E0FFF77EFEF9E7304868
:100B2800626802EB4203834200F20281B0EB023FAB
:100B380000F20081082D66D8DFE805F0056520651C
:100B4800306565655800FFF7C7FE0025070E0602E9
:100B5800626850082B4616EB000B47F1000C58460C
:100B68006146FFF72DFB03462846A3F540711D4A51
:100B7800914200F2E1802268D360A7E05608002580
:100B88002B46DFF864B04FF0000C1BEB06004CF16D
:100B98000001FFF715FB03462846E6E7FFF73CFE92
:100BA8000025070E0602626850082B4616EB000B5C
:100BB80047F1000C58466146FFF702FB03462846FA
:100BC800D3E700BFF369FFEF008000400038014021
:100BD8000044004000480040004C004000500040E5
:100BE8000024F400FFFC0F00000024F45008002744
:100BF80000252B4610F5000047F10001FFF7E0FA49
:100C080003462846B1E701200023AEE7082D49D85E
:100C1800DFE805F0051E2948344848483F00FFF73B
:100C28005BFE6268530803EB4003B3FBF2F39BB22D
:100C38000020A3F110014FF6EF7291427ED89AB2CC
:100C480022F00F02C3F3420313432268D3603DE04E
:100C5800FFF754FE6268530803EB4003B3FBF2F35B
:100C68009BB20020E5E76268530803F1F47303F5CB
:100C78009043B3FBF2F39BB20020DAE7FFF7CCFD19
:100C88006268530803EB4003B3FBF2F39BB2002006
:100C9800CFE76268530803F58033B3FBF2F39BB2E6
:100CA8000020C6E701200023C3E7FFF715FE6368AD
:100CB80000EB5302B2FBF3F292B20020A2F1100152
:100CC8004FF6EF7399423BD82368DA600022226618
:100CD8006266BDE8F088FFF711FE636800EB530217
:100CE800B2FBF3F292B20020E8E763685A0802F513
:100CF800740202F51052B2FBF3F292B20020DDE763
:100D0800FFF78AFD636800EB5302B2FBF3F292B27D
:100D18000020D3E763685A0802F50042B2FBF3F2F9
:100D280092B20020CAE701200022C7E70120CDE7E0
:100D38000120CBE70120C9E70120C7E70120C5E76B
:100D48000120C3E7436A13F0010F06D00268536815
:100D580023F40033816A0B435360436A13F0020F94
:100D680006D00268536823F48033C16A0B4353608A
:100D7800436A13F0040F06D00268536823F48023F3
:100D8800016B0B435360436A13F0080F06D00268E7
:100D9800536823F40043416B0B435360436A13F0D9
:100DA800100F06D00268936823F48053816B0B43BD
:100DB8009360436A13F0200F06D00268936823F407
:100DC8000053C16B0B439360436A13F0400F0AD082
:100DD8000268536823F48013016C0B435360036C5F
:100DE800B3F5801F0BD0436A13F0800F06D002685A
:100DF800536823F40023816C0B43536070470268E7
:100E0800536823F4C003416C0B435360EBE72DE9AF
:100E1800F04104460F4616469846069D2368DB694E
:100E280037EA03030CBF01230023B3423AD1B5F1DB
:100E3800FF3FF3D0FFF796FBA0EB0800A8421FD8AE
:100E4800F5B123681A6812F0040FE7D0DA6912F4D2
:100E5800006FE3D04FF400621A622268136823F42B
:100E6800D07313602268936823F0010393602023F2
:100E78006367A367E367002384F87030032012E0F8
:100E88002268136823F4D07313602268936823F0F0
:100E98000103936020236367A367002384F87030FD
:100EA800032000E00020BDE8F0812DE9F04182B088
:100EB8001E46436F202B55D104460D469046002907
:100EC80055D0002A55D090F87030012B53D001230B
:100ED80080F870300023C36721234367FFF742FB84
:100EE8000746A4F85080A4F85280A368B3F5805F41
:100EF80005D04FF00008002384F8703013E0236910
:100F080013B14FF00008F6E7A8460025F3E738F8D4
:100F1800023B2268C3F308031385B4F85230013B3F
:100F28009BB2A4F85230B4F852309BB273B1009619
:100F38003B46002280212046FFF769FFE8B9002DD3
:100F4800E5D0236815F8012B1A85E6E700963B469D
:100F5800002240212046FFF75AFF034678B9202295
:100F6800626700E00223184602B0BDE8F081012361
:100F7800F9E70123F7E70223F5E70323F3E7032360
:100F8800F1E72DE9F04383B01E46836F202B7BD118
:100F980004460D46904600297AD0002A7AD090F867
:100FA8007030012B78D0012380F870300023C3679C
:100FB80022238367FFF7D6FA0746A4F85880A4F8D7
:100FC8005A80A368B3F5805F06D0A3B9226972B9C5
:100FD800FF22A4F85C2014E0226922B940F2FF1233
:100FE800A4F85C200DE0FF22A4F85C2009E07F2231
:100FF800A4F85C2005E0B3F1805F0DD00022A4F8CE
:101008005C20B4F85C80B3F5805F0FD04FF0000926
:10101800002384F870301DE022691AB97F22A4F8F1
:101028005C20EEE73F22A4F85C20EAE7236913B1CD
:101038004FF00009ECE7A9460025E9E723689B8CF7
:1010480008EA030329F8023BB4F85A30013B9BB283
:10105800A4F85A30B4F85A309BB28BB100963B468C
:10106800002220212046FFF7D2FEB8B9002DE5D096
:1010780023689A8C5FFA88F3134005F8013BE3E78D
:101088002023A367002000E0022003B0BDE8F0831E
:101098000120FAE70120F8E70220F6E70320F4E749
:1010A80030B583B004460023C367FFF75BFA0546F3
:1010B80023681B6813F0080F0CD123681B6813F012
:1010C800040F15D120236367A367002084F87000FC
:1010D80003B030BD6FF07E430093034600224FF407
:1010E80000112046FFF793FE0028E6D00320EFE723
:1010F8006FF07E4300932B4600224FF48001204678
:10110800FFF785FE0028DDD00320E1E768B310B5BE
:101118000446436F03B3242363672268136823F0EC
:10112800010313602046FFF7FBFB012813D0636A15
:10113800BBB92268536823F49043536022689368CC
:1011480023F02A0393602268136843F001031360B5
:101158002046FFF7A5FF10BD80F8703000F06AF850
:10116800D9E72046FFF7EEFDE3E70120704708B511
:10117800FFF7ECF9FFF767FA08BDA0F16103DBB2EE
:10118800192B01D82038C0B27047FEE708B50948C6
:10119800094B03604FF4E133436000238360C3606D
:1011A80003610C234361FFF7B1FF00B908BDFFF7E6
:1011B800ECFF00BF300000200044004030B59BB079
:1011C800FFF7AEF9FFF7E2FF184B1C682046FFF760
:1011D80077F94FF0FF3382B221461548FFF765FED5
:1011E80000244FF0FF3301220DF167011048FFF78B
:1011F800C8FE9DF867000D2808D0651CFFF7BDFFE5
:101208001AAB1C4404F8680C2C46EAE7621C1AABBB
:101218001C440D2304F8683C4FF0FF3392B2694632
:101228000348FFF742FE00201BB030BD0800002035
:101238003000002010B588B0194B9A6D42F4003286
:101248009A659A6D02F400320192019ADA6C42F0C2
:101258000102DA64DB6C03F001030293029B0423AE
:101268000393022304930123059300240694072380
:10127800079303A94FF09040FFF7EAF90823039377
:1012880003A94FF09040FFF7E3F92620FFF7B6F9DE
:1012980022460F212620FFF77DF908B010BD00BFB8
:1012A800001002400F49D1F8883043F47003C1F8A8
:1012B80088300D4B1A6842F001021A6000209860CD
:1012C8001A6822F0A85222F410221A604FF48052B1
:1012D800DA601A6822F480221A6098614FF000637D
:1012E8008B60704700ED00E000100240DFF834D05A
:1012F800002103E00C4B5B58435004310B480C4B66
:1013080042189A42F6D30B4A02E0002342F8043B03
:10131800094B9A42F9D3FFF7C5FF00F011F8FFF720
:101328004DFFFEE700800120201400080000002087
:101338001000002010000020B0000020FEE7000090
:1013480070B50D4E0D4CA41BA4100025A54209D163
:101358000B4E0C4C00F018F8A41BA4100025A54255
:1013680005D170BD56F8253098470135EEE756F897
:10137800253098470135F2E71014000810140008CA
:101388001014000814140008F8B500BFF8BC08BC15
:101398009E467047F8B500BFF8BC08BC9E4670472B
:1013A800A0860100400D0300801A060000350C00DD
:1013B80040420F0080841E0000093D0000127A00A0
:1013C8000024F40000366E010048E801006CDC02DD
:1013D80000000000000000000102030406070809DD
:1013E800000000000102030448656C6C6F20576F11
:1013F800726C642C2072656164792021200D0A00CA
:08140800F0EDFF7F0100000080
:08141000AD010008000000001E
:0814180089010008000000003A
:101420000100000010000000F013000800093D005A
:04000005080012F5E8
:00000001FF
