:020000040800F2
:100000000080012051090008A1090008A109000889
:10001000A1090008A1090008A109000800000000CA
:10002000000000000000000000000000A10900081E
:10003000A109000800000000A1090008ED07000860
:10004000A1090008A1090008A1090008A1090008E8
:10005000A1090008A1090008A1090008A1090008D8
:10006000A1090008A1090008A1090008A1090008C8
:10007000A1090008A1090008A1090008A1090008B8
:10008000A1090008A1090008A1090008A1090008A8
:10009000A1090008A1090008A1090008A109000898
:1000A000A1090008A1090008A1090008A109000888
:1000B000A1090008A1090008A1090008A109000878
:1000C000A1090008A1090008A1090008A109000868
:1000D000A1090008A1090008A1090008A109000858
:1000E000A1090008A1090008A1090008A109000848
:1000F000A1090008A1090008A1090008A109000838
:10010000A1090008A1090008A1090008A109000827
:10011000A1090008A1090008F9070008A1090008C1
:10012000A1090008A1090008A1090008A109000807
:10013000A1090008A1090008A1090008A1090008F7
:10014000A1090008A1090008A1090008A1090008E7
:10015000A1090008A1090008A1090008A1090008D7
:10016000A1090008A1090008A1090008A1090008C7
:10017000A1090008A1090008A10900080000000069
:08018000A1090008A109000813
:1001880010B5054C237833B9044B13B10448AFF3C9
:1001980000800123237010BD100000200000000023
:1001A800EC09000808B5034B1BB103490348AFF33A
:1001B800008008BD0000000014000020EC090008C1
:1001C80070470000104B1B680BB90120704710B531
:1001D80004464FF47A70B0FBF3F30C4A1068B0FB96
:1001E800F3F000F08BF868B90F2C01D901200AE070
:1001F800002221464FF0FF3000F03EF8024B5C60D1
:10020800002000E0012010BD0000002008000020B0
:1002180010B5094A136843F480731360032000F093
:1002280019F80020FFF7CEFF10B10124204610BDB9
:100238000446FFF7C5FFF9E700200240034A1368A8
:10024800034909680B441360704700BF2C00002065
:1002580000000020074AD36823F4E0631B041B0C4A
:10026800000200F4E060184340F0BF6040F4003042
:10027800D060704700ED00E030B4174BDB68C3F383
:100288000223C3F10704042C28BF04241D1D062DD6
:1002980018D9033B4FF0FF3505FA04F421EA0401AD
:1002A800994005FA03F322EA0303194300280BDBFC
:1002B8000901C9B200F1604000F5614080F80013FF
:1002C80030BC70470023E5E700F00F000901C9B210
:1002D800024B1954F4E700BF00ED00E014ED00E014
:1002E800002807DB00F01F02400901239340024A5F
:1002F80042F82030704700BF00E100E00138B0F15B
:10030800807F0AD2064B5860064AF02182F82310F3
:100318000020986007221A6070470120704700BFCC
:1003280010E000E000ED00E0704708B5FFF7FCFFC3
:1003380008BD0000F0B583B000233FE0C66A26EA96
:100348000406C5F3C0049C403443C4625FE006243D
:1003580000E00024B4403C430235644E46F8254092
:10036800634C2568D44304EA05064F6817F4803FB8
:1003780001D042EA05065E4D2E606D6804EA050666
:100388004F6817F4003F01D042EA0506584D6E60E9
:10039800AD6804EA05064F6817F4801F01D042EAE9
:1003A8000506534DAE60ED682C404E6816F4001FEC
:1003B80001D042EA05044E4AD46001330A6832FA91
:1003C80003F400F0918001249C402240F5D04D6850
:1003D8006E1E012E03D9112D01D0122D12D186685F
:1003E8005F000325BD4026EA0506CD68BD403543BC
:1003F8008560466826EA04064D68C5F300159D40E9
:10040800354345604D6805F00306032E96D0C56850
:100418005F000324BC40E44325408E68BE402E4361
:10042800C6604D68022D01D0122D13D1DE080836A2
:1004380050F826E003F007054FEA850C0F2505FA6A
:100448000CF52EEA050E0D6905FA0CF545EA0E05C0
:1004580040F8265005682C404D6805F00305BD405E
:100468002C4304604C6814F0805FA6D0214C256EA4
:1004780045F001052566246E04F001040194019CF1
:100488009D08AE1C194C54F8267003F00304A6000E
:100498000F24B44027EA0407B0F1904F3FF459AF56
:1004A800154CA04216D004F58064A04214D004F57F
:1004B8008064A04212D004F58064A04210D004F5F4
:1004C8008064A0420ED004F58064A0423FF43FAFA0
:1004D80007243FE701243DE702243BE7032439E7EB
:1004E800042437E7052435E703B0F0BD00000140D8
:1004F8000004014000100240000400480AB981626B
:1005080070478161704743690B4201D1816170472F
:10051800816270470268D36843F00103D3600268C0
:100528009168064B0B40062B06D0B3F5803F03D0ED
:10053800136843F0010313600020704707000100AF
:10054800704770477047704710B5044603681A69CA
:1005580012F0020F11D0DA6812F0020F0DD06FF00E
:1005680002021A610123037703689B6913F0030FE2
:1005780079D0FFF7E6FF0023237723681A6912F082
:10058800040F12D0DA6812F0040F0ED06FF00402D4
:100598001A610223237723689B6913F4407F68D08C
:1005A8002046FFF7CEFF0023237723681A6912F04D
:1005B800080F12D0DA6812F0080F0ED06FF0080298
:1005C8001A61042323772368DB6913F0030F57D0DC
:1005D8002046FFF7B6FF0023237723681A6912F035
:1005E800100F12D0DA6812F0100F0ED06FF0100250
:1005F8001A61082323772368DB6913F4407F46D008
:100608002046FFF79EFF0023237723681A6912F01C
:10061800010F03D0DA6812F0010F3FD123681A697D
:1006280012F0800F03D0DA6812F0800F3DD12368F2
:100638001A6912F4807F03D0DA6812F0800F3BD178
:1006480023681A6912F0400F03D0DA6812F0400FDD
:1006580039D123681A6912F0200F03D0DA6812F032
:10066800200F37D110BDFFF76BFF2046FFF76AFF59
:1006780081E72046FFF764FF2046FFF763FF92E714
:100688002046FFF75DFF2046FFF75CFFA3E7204603
:10069800FFF756FF2046FFF755FFB4E76FF001025A
:1006A8001A61204600F0C8F8B8E76FF080021A61B6
:1006B800204600F095F8BAE76FF480721A61204678
:1006C80000F08FF8BCE76FF040021A612046FFF790
:1006D8003AFFBEE76FF020021A61204600F07FF86B
:1006E800C0E700000368304A904212D0B0F1804F52
:1006F8000FD0A2F5943290420BD002F5806290425E
:1007080007D002F58062904203D002F594329042FD
:1007180003D123F070034A681343234A90421ED042
:10072800B0F1804F1BD0A2F59432904217D002F559
:100738008062904213D002F5806290420FD002F599
:10074800943290420BD002F54062904207D002F5F5
:100758008062904203D002F58062904203D123F474
:100768004073CA68134323F080034A691343036044
:100778008B68C3620B6883620B4B98420FD003F5FA
:10078800006398420BD003F54063984207D003F505
:100798008063984203D003F58063984201D10B69C6
:1007A8000363012343617047002C0140A8B110B5D1
:1007B800044690F83D305BB1022384F83D30211D9A
:1007C8002068FFF78FFF012384F83D30002010BD1B
:1007D80080F83C3000F07AF8EEE701207047704767
:1007E8007047704708B5FFF729FDFFF79EFD08BD64
:1007F80008B50248FFF7A8FE08BD00BF300000207A
:1008080000B587B00B4BDA6C42F00102DA64DB6C9E
:1008180003F001030093009B20230193012302931B
:100828000023039301A94FF09040FFF783FD07B021
:100838005DF804FB0010024008B520214FF09040FD
:10084800FFF761FE08BDFEE708B50A480A4B0360DA
:100858003C23436040F27F23C360FFF7A7FF38B90A
:1008680001224FF480714FF09040FFF747FE08BD1A
:10087800FFF7E9FF300000200010004008B5FFF73F
:10088800C7FCFFF7BDFF012280214FF09040FFF722
:1008980035FE00224FF480714FF09040FFF72EFE96
:1008A80000224FF400714FF09040FFF727FEFFF74A
:1008B800CBFF0548FFF72EFE01224FF400714FF0E1
:1008C8009040FFF71BFEFEE73000002000B583B024
:1008D8000A4B9A6D42F010029A659B6D03F0100363
:1008E8000193019B3620FFF7FBFC00220F213620E5
:1008F800FFF7C2FC03B05DF804FB00BF0010024024
:100908000F49D1F8883043F47003C1F888300D4B93
:100918001A6842F001021A60002098601A6822F0F2
:10092800A85222F410221A604FF48052DA601A6832
:1009380022F480221A6098614FF000638B60704740
:1009480000ED00E000100240DFF834D0002103E0A1
:100958000C4B5B58435004310B480C4B42189A42DD
:10096800F6D30B4A02E0002342F8043B094B9A42B3
:10097800F9D3FFF7C5FF00F011F8FFF77FFFFEE797
:1009880000800120180A0008000000201000002044
:100998001000002070000020FEE7000070B50D4E2A
:1009A8000D4CA41BA4100025A54209D10B4E0C4CDC
:1009B80000F018F8A41BA4100025A54205D170BDAD
:1009C80056F8253098470135EEE756F82530984710
:1009D8000135F2E7080A0008080A0008080A0008B2
:1009E8000C0A0008F8B500BFF8BC08BC9E46704762
:1009F800F8B500BFF8BC08BC9E4670470000000070
:080A0800AD0100080000000030
:080A100089010008000000004C
:100A1800010000001000000000093D000000000077
:040000050800095195
:00000001FF
