:020000040800F2
:1000000000800120CD2200081D2300081D230008C8
:100010001D2300081D2300081D2300080000000008
:100020000000000000000000000000001D23000888
:100030001D230008000000001D2300083D1F0008CC
:100040001D2300081D2300081D2300081D23000890
:100050001D2300081D2300081D2300081D23000880
:100060001D2300081D2300081D2300081D23000870
:100070001D2300081D2300081D2300081D23000860
:100080001D2300081D2300081D2300081D23000850
:100090001D2300081D2300081D2300081D23000840
:1000A0001D2300081D2300081D2300081D23000830
:1000B000491F00081D2300081D2300081D230008F8
:1000C0001D2300081D2300081D2300081D23000810
:1000D0001D2300081D2300081D2300081D23000800
:1000E0001D2300081D2300081D2300081D230008F0
:1000F0001D2300081D2300081D2300081D230008E0
:100100001D2300081D2300081D2300081D230008CF
:100110001D2300081D2300081D2300081D230008BF
:100120001D2300081D2300081D2300081D230008AF
:100130001D2300081D2300081D2300081D2300089F
:100140001D2300081D2300081D2300081D2300088F
:100150001D2300081D2300081D2300081D2300087F
:100160001D2300081D2300081D2300081D2300086F
:100170001D2300081D2300081D23000800000000A7
:080180001D2300081D230008E7
:1001880010B5054C237833B9044B13B10448AFF3C9
:1001980000800123237010BD100000200000000023
:1001A8006823000808B5034B1BB103490348AFF3A4
:1001B800008008BD0000000014000020682300082B
:1001C80053B94AB9002908BF00281CBF4FF0FF31B6
:1001D8004FF0FF3000F072B9ADF1080C6DE904CEB4
:1001E80000F006F8DDF804E0DDE9022304B070470A
:1001F8002DE9F047089E04468846002B4BD18A42D9
:10020800154667D9B2FA82F24AB1C2F1200701FA5B
:1002180002F320FA07F7954047EA030894404FEAAB
:10022800154E230CB8FBFEF71FFA85FC0EFB17884A
:1002380043EA084307FB0CF1994209D9EB1807F187
:10024800FF3080F01B81994240F21881023F2B4415
:100258005B1AA4B2B3FBFEF00EFB103344EA03446E
:1002680000FB0CFCA44509D92C1900F1FF3380F0E0
:100278000781A44540F2048102382C4440EA074033
:10028800A4EB0C0400271EB1D4400023C6E90043A8
:100298003946BDE8F0878B4209D9002E00F0EB8083
:1002A8000027C6E9000138463946BDE8F087B3FAA9
:1002B80083F7002F47D18B4202D3824200F2FA80A3
:1002C800841A61EB030301209846002EE0D0C6E9AA
:1002D8000048DDE702B9FFDEB2FA82F2002A40F0F8
:1002E8008F80491B4FEA154E1FFA85F80127B1FB8D
:1002F800FEFC230C0EFB1C1143EA014308FB0CF126
:10030800994207D9EB180CF1FF3002D2994200F25A
:10031800CD808446591AA3B2B1FBFEF00EFB10142F
:1003280043EA044408FB00F8A04507D92C1900F15A
:10033800FF3302D2A04500F2B6801846A4EB0804A9
:1003480040EA0C409FE7C7F1200CBB4022FA0CFEA4
:100358004EEA030E01FA07F420FA0CF521FA0CF321
:100368004FEA1E482543B3FBF8F92C0C08FB193358
:100378001FFA8EFA44EA034309FB0AF49C4202FA84
:1003880007F200FA07F10BD91EEB030309F1FF305E
:1003980080F087809C4240F28480A9F1020973446E
:1003A8001B1BADB2B3FBF8F008FB103345EA03445E
:1003B80000FB0AFAA24508D91EEB040400F1FF333A
:1003C8006BD2A24569D90238744440EA0940A0FBBF
:1003D8000289A4EB0A044C45C2464B4654D351D07B
:1003E800002E69D0B1EB0A0564EB030404FA0CFC97
:1003F800FD40FC404CEA0505C6E90054002747E7E4
:10040800C2F1200320FA03F7954001FA02F021FA1D
:1004180003F34FEA154E3843010CB3FBFEF71FFAFE
:1004280085F80EFB173341EA034107FB08F38B42BB
:1004380004FA02F407D9691807F1FF3C2FD28B425E
:100448002DD9023F2944CB1A81B2B3FBFEF00EFB33
:10045800103341EA034100FB08F38B4207D96918BE
:1004680000F1FF3C17D28B4215D902382944C91A2A
:1004780040EA07473BE73746304609E70746E7E6DD
:100488001846FBE64145ABD2B8EB020A69EB0E020F
:1004980001381346A4E76046E9E7184695E767463A
:1004A800D1E781467CE702382C4447E7ACF1020CDF
:1004B8002B442FE7384608E73746E9E6704700BF80
:1004C800104B1B680BB90120704710B504464FF458
:1004D8007A70B0FBF3F30C4A1068B0FBF3F000F04D
:1004E800A5F868B90F2C01D901200AE0002221469D
:1004F8004FF0FF3000F058F8024B5C60002000E03D
:10050800012010BD000000200800002010B5094A95
:10051800136843F480731360032000F033F800205D
:10052800FFF7CEFF10B10124204610BD044601F0AC
:1005380009FEF9E700200240034A136803490968E5
:100548000B441360704700BF2C00002000000020FF
:10055800014B1868704700BF2C00002038B50446CE
:10056800FFF7F6FF0546B4F1FF3F02D0044B1B68C6
:100578001C44FFF7EDFF401BA042FAD338BD00BF73
:1005880000000020074AD36823F4E0631B041B0C17
:10059800000200F4E060184340F0BF6040F400300F
:1005A800D060704700ED00E030B4174BDB68C3F350
:1005B8000223C3F10704042C28BF04241D1D062DA3
:1005C80018D9033B4FF0FF3505FA04F421EA04017A
:1005D800994005FA03F322EA0303194300280BDBC9
:1005E8000901C9B200F1604000F5614080F80013CC
:1005F80030BC70470023E5E700F00F000901C9B2DD
:10060800024B1954F4E700BF00ED00E014ED00E0E0
:10061800002807DB00F01F02400901239340024A2B
:1006280042F82030704700BF00E100E00138B0F127
:10063800807F0AD2064B5860064AF02182F82310C0
:100648000020986007221A6070470120704700BF99
:1006580010E000E000ED00E0042805D0054A13682A
:1006680023F0040313607047024A136843F004033D
:100678001360704710E000E0704708B5FFF7FCFF13
:1006880008BD0000F0B583B000233FE0C66A26EA43
:100698000406C5F3C0049C403443C4625FE00624EA
:1006A80000E00024B4403C430235644E46F825403F
:1006B800634C2568D44304EA05064F6817F4803F65
:1006C80001D042EA05065E4D2E606D6804EA050613
:1006D8004F6817F4003F01D042EA0506584D6E6096
:1006E800AD6804EA05064F6817F4801F01D042EA96
:1006F8000506534DAE60ED682C404E6816F4001F99
:1007080001D042EA05044E4AD46001330A6832FA3D
:1007180003F400F0918001249C402240F5D04D68FC
:100728006E1E012E03D9112D01D0122D12D186680B
:100738005F000325BD4026EA0506CD68BD40354368
:100748008560466826EA04064D68C5F300159D4095
:10075800354345604D6805F00306032E96D0C568FD
:100768005F000324BC40E44325408E68BE402E430E
:10077800C6604D68022D01D0122D13D1DE0808364F
:1007880050F826E003F007054FEA850C0F2505FA17
:100798000CF52EEA050E0D6905FA0CF545EA0E056D
:1007A80040F8265005682C404D6805F00305BD400B
:1007B8002C4304604C6814F0805FA6D0214C256E51
:1007C80045F001052566246E04F001040194019C9E
:1007D8009D08AE1C194C54F8267003F00304A600BB
:1007E8000F24B44027EA0407B0F1904F3FF459AF03
:1007F800154CA04216D004F58064A04214D004F52C
:100808008064A04212D004F58064A04210D004F5A0
:100818008064A0420ED004F58064A0423FF43FAF4C
:1008280007243FE701243DE702243BE7032439E797
:10083800042437E7052435E703B0F0BD0000014084
:10084800000401400010024000040048024B1868F0
:1008580000F4C060704700BF0070004030B583B03E
:100868000546204B9B6D13F0805F0BD0FFF7EEFF22
:10087800B0F5007F17D0802D1FD82DD0702D2DD02A
:1008880000211BE0174CA36D43F08053A365A36DB3
:1008980003F080530193019BFFF7D8FFA36D23F06A
:1008A8008053A365E4E7802D03D9A02D03D9022145
:1008B80004E0002102E0012100E003210A4A136854
:1008C80023F007030B431360136803F007038B42FD
:1008D80006D0012003B030BD0221EFE70121EDE78A
:1008E8000020F7E70010024000200240284A9368E1
:1008F800D26802F0030213F00C030AD00C2B06D0C6
:10090800042B1FD0082B20D00020024610E0012A1B
:10091800F6D11F4A126812F0080F0CD11C4AD2F8FF
:100928009420C2F303221B4951F8222043B100202E
:100938000C2B0DD07047164A1268C2F30312F2E767
:100948001046F5E714480022F2E714480022EFE7C2
:100958000F4BDB6803F00303022B15D0032B15D0D4
:100968000B4BD868C0F302100130D968C1F30621D7
:1009780002FB01F2B2FBF0F2D868C0F3416001302B
:100988004000B2FBF0F0D5E7034AE9E7034AE7E79E
:1009980000100240802300080024F40000127A00AE
:1009A800002800F00083F0B583B00446AF4B9D6883
:1009B80005F00C05DE6806F00306036813F0100F57
:1009C8005BD0E5B10C2D18D0A369002B00F0BC80DA
:1009D800A64A136843F001031360FFF7B9FD074601
:1009E800A24B1B6813F0020F40F09B80FFF7B0FD8D
:1009F800C01B0228F4D90323E1E2012EE4D19B4B6A
:100A08001B6813F0020F03D0A369002B00F0CE82FD
:100A1800206A964B1B6813F0080F5CD0934B1B6839
:100A280003F0F00398425DD8904B1A6842F0080230
:100A38001A601A6822F0F002216A0A431A605A689A
:100A480022F47F42E16942EA01225A60002D61D016
:100A5800FFF74CFF854B9B68C3F30313844AD35CB1
:100A680003F01F03D840834B1860834B1868FFF7C7
:100A780027FD0346002840F0A282236813F0010FE7
:100A880000F08180082D75D00C2D71D06368B3F506
:100A9800803F00F09780B3F5A02F00F09980734B4A
:100AA8001A6822F480321A601A6822F480221A60C6
:100AB8006368002B00F09980FFF74AFD07466B4BEF
:100AC8001B6813F4003F5ED1FFF742FDC01B64288A
:100AD800F5D9032373E2654BD3F894301B0903F06F
:100AE800F0039FE7FFF7BAFE002840F061825F4BF2
:100AF8001A6842F008021A601A6822F0F002216AA5
:100B08000A431A605A6822F47F42E16942EA0122E4
:100B18005A609DE7206AFFF7A1FE002898D00123BC
:100B28004DE2524B1A6842F008021A601A6822F025
:100B3800F002216A0A431A605A6822F47F42E16986
:100B480042EA01225A6098E7484A136823F00103F1
:100B58001360FFF7FDFC0746444B1B6813F0020FB8
:100B68008BD0FFF7F5FCC01B0228F5D9032326E23A
:100B7800032E8BD13D4B1B6813F4003F03D06368F1
:100B8800002B00F01782236813F0020F4FD0042DBA
:100B98003CD00C2D38D0E368002B78D0334A13684A
:100BA80043F480731360FFF7D3FC06462F4B1B6892
:100BB80013F4806F62D1FFF7CBFC801B0228F5D9B4
:100BC8000323FCE1294A136843F4803313606FE779
:100BD80003F18043A3F53C331A6842F480221A607B
:100BE8001A6842F480321A6062E7FFF7B1FC0746E0
:100BF8001E4B1B6813F4003FC5D0FFF7A9FCC01BB0
:100C08006428F5D90323DAE1022EC4D1174B1B68F7
:100C180013F4806F03D0E368002B00F0CD81134AF2
:100C2800536823F0F853216943EA0163536023684A
:100C380013F0080F56D06369002B3CD00B4AD2F84A
:100C4800943043F00103C2F89430FFF781FC064664
:100C5800064BD3F8943013F0020F43D1FFF778FC1A
:100C6800801B0228F4D90323A9E100BF0010024029
:100C7800B02300080800002004000020B84A536888
:100C880023F0F853216943EA01635360CFE7B44A7C
:100C9800136823F480731360FFF75AFC0646B04BC1
:100CA8001B6813F4806FC2D0FFF752FC801B022828
:100CB800F5D9032383E1AA4AD2F8943023F001033B
:100CC800C2F89430FFF744FC0646A54BD3F894309D
:100CD80013F0020F06D0FFF73BFC801B0228F4D963
:100CE80003236CE1236813F0040F7AD09C4B9B6DAF
:100CF80013F0805F0BD19A4B9A6D42F080529A653F
:100D08009B6D03F080530193019B012600E00026B0
:100D1800944B1B6813F4807F26D0A368012B37D02F
:100D2800052B3DD08E4BD3F8902022F00102C3F85A
:100D38009020D3F8902022F00402C3F89020A368F2
:100D4800002B3BD0FFF704FC0746854BD3F89030C7
:100D580013F0020F44D1FFF7FBFBC01B41F28833AD
:100D68009842F2D903232AE17E4A136843F4807338
:100D78001360FFF7EDFB07467A4B1B6813F4807F7F
:100D8800CBD1FFF7E5FBC01B0228F5D9032316E1F9
:100D9800734AD2F8903043F00103C2F89030CEE79E
:100DA8006F4BD3F8902042F00402C3F89020D3F898
:100DB800902042F00102C3F89020C0E7FFF7C8FB7B
:100DC8000746674BD3F8903013F0020F08D0FFF7AF
:100DD800BFFBC01B41F288339842F2D90323EEE0EF
:100DE8006EBBA36A002B00F0E980022B2DD00C2DDE
:100DF80000F0EE805A4B1A6822F080721A601B6865
:100E080013F0205F04D1564AD36823F00303D3605C
:100E1800534AD36823F0887323F48033D360FFF7F1
:100E280097FB04464E4B1B6813F0007F00F0B98017
:100E3800FFF78EFB001B0228F4D90323BFE0484AC2
:100E4800936D23F080539365CBE7454BDB6803F044
:100E58000301E26A91420FD00C2D00F0B380404BA1
:100E68001B6813F0806F40F0AF803D4B1B6813F098
:100E7800805F2DD00123A2E003F07002216B0139BD
:100E8800B2EB011FE8D103F4FE42616BB2EB012F14
:100E9800E2D103F40031A26B073A18BF0122914254
:100EA800DAD103F4C001E26B5208013AB1EB425FB8
:100EB800D2D103F0C063226C5208013AB3EB426FFF
:100EC800CAD1274B1B6813F0007F51D0002376E06E
:100ED800234A136823F080731360FFF739FB054634
:100EE8001F4B1B6813F0007F06D0FFF731FB401B38
:100EF8000228F5D9032362E0194AD3681A49194030
:100F0800E36A206B013843EA0013606B43EA00236D
:100F1800E06B4008013843EA4053206C4008013830
:100F280043EA4063A06B000943EA40430B43D360A4
:100F3800136843F080731360D36843F08073D36001
:100F4800FFF706FB0446064B1B6813F0007F0DD124
:100F5800FFF7FEFA001B0228F5D903232FE000BF94
:100F680000100240007000408C809DF9002326E0AC
:100F7800184B1A6842F080721A60DA6842F0807280
:100F8800DA60FFF7E5FA044604E0FFF7E1FA001B30
:100F980002281BD80F4B1B6813F0007FF5D00023E5
:100FA8000DE000230BE0012318467047012306E0FB
:100FB800012304E0012302E0012300E00023184696
:100FC80003B0F0BD0123FAE70123F8E70323F6E7AE
:100FD8000123F4E700100240002800F09B8070B560
:100FE80004464E4B1B6803F007038B420CD24B4A56
:100FF800136823F007030B431360136803F0070318
:101008008B4201D0012070BD0D46236813F0010FFB
:1010180039D06368032B09D0022B26D063BB404A22
:10102800126812F0020F06D10120ECE73C4A126860
:1010380012F0007F70D03A498A6822F00302134305
:101048008B60FFF785FA0646354B9B6803F00C0367
:101058006268B3EB820F16D0FFF77AFA801B41F271
:1010680088339842F0D90320CDE72D4A126812F44C
:10107800003FE0D10120C6E7294A126812F4806FC8
:10108800D9D10120BFE7236813F0020F06D0244A04
:10109800936823F0F003A1680B4393601F4B1B6810
:1010A80003F00703AB420CD91C4A136823F007036B
:1010B8002B431360136803F00703AB4201D00120F0
:1010C800A1E7236813F0040F06D0154A936823F4A8
:1010D800E063E1680B439360236813F0080F07D0BF
:1010E8000F4A936823F46053216943EAC10393606C
:1010F800FFF7FCFB0A4B9B68C3F30313094AD35C55
:1011080003F01F03D840084B1860084B1868FFF716
:10111800D7F978E701207047012074E700200240E2
:1011280000100240B023000808000020040000203E
:10113800014B1868704700BF0800002008B5FFF78A
:10114800F7FF054B9B68C3F30223044AD35C03F003
:101158001F03D84008BD00BF00100240C02300088C
:1011680008B5FFF7E5FF054B9B68C3F3C223044AA4
:10117800D35C03F01F03D84008BD00BF0010024035
:10118800C023000830B4036A23F001030362036A32
:101198004468826922F4803222F073020D682A437F
:1011A80023F002038D682B431C4DA8420FD005F590
:1011B8000065A8420BD005F54065A84207D005F5A3
:1011C8008065A84203D005F58065A84205D123F0C3
:1011D8000803CD682B4323F00403104DA8420FD019
:1011E80005F50065A8420BD005F54065A84207D073
:1011F80005F58065A84203D005F58065A84205D1AC
:1012080024F440754C692C438D692C4344608261F9
:101218004A684263036230BC704700BF002C01403B
:1012280030B4036A23F480730362036A4468C269B2
:1012380022F4803222F073020D682A4323F40073EB
:101248008D6843EA0523184DA84203D005F50065CB
:10125800A84206D123F40063CD6843EA052323F4AA
:101268008063114DA8420FD005F50065A8420BD048
:1012780005F54065A84207D005F58065A84203D06A
:1012880005F58065A84207D124F440544D6944EA25
:1012980005148D6944EA05144460C2614A68C26352
:1012A800036230BC704700BF002C014030B4036AB1
:1012B80023F480530362036A4468C26922F080728F
:1012C80022F4E6420D6842EA052223F400538D68B1
:1012D80043EA05330F4DA8420FD005F50065A84233
:1012E8000BD005F54065A84207D005F58065A842F2
:1012F80003D005F58065A84204D124F480444D69E3
:1013080044EA85144460C2614A680264036230BCDE
:10131800704700BF002C014030B4036A23F48033C7
:101328000362036A4468426D22F4803222F070023C
:101338000D682A4323F400338D6843EA05430F4DB3
:10134800A8420FD005F50065A8420BD005F5406509
:10135800A84207D005F58065A84203D005F5806549
:10136800A84204D124F480344D6944EA0524446039
:1013780042654A688265036230BC7047002C0140B0
:1013880030B4036A23F480130362036A4468426D2D
:1013980022F0807222F4E0420D6842EA052223F42A
:1013A80000138D6843EA05530F4DA8420FD005F589
:1013B8000065A8420BD005F54065A84207D005F5A1
:1013C8008065A84203D005F58065A84204D124F4BD
:1013D80080244D6944EA8524446042654A68C265B0
:1013E800036230BC704700BF002C01407047704753
:1013F80070477047704710B5044603681A6912F0C1
:10140800020F11D0DA6812F0020F0DD06FF002024D
:101418001A610123037703689B6913F0030F79D0DE
:10142800FFF7E6FF0023237723681A6912F0040FF9
:1014380012D0DA6812F0040F0ED06FF004021A61AD
:101448000223237723689B6913F4407F68D02046E2
:10145800FFF7CEFF0023237723681A6912F0080FDD
:1014680012D0DA6812F0080F0ED06FF008021A6175
:10147800042323772368DB6913F0030F57D0204632
:10148800FFF7B6FF0023237723681A6912F0100FBD
:1014980012D0DA6812F0100F0ED06FF010021A6135
:1014A800082323772368DB6913F4407F46D020465E
:1014B800FFF79EFF0023237723681A6912F0010FB4
:1014C80003D0DA6812F0010F3FD123681A6912F0CD
:1014D800800F03D0DA6812F0800F3DD123681A69B3
:1014E80012F4807F03D0DA6812F0800F3BD12368B2
:1014F8001A6912F0400F03D0DA6812F0400F39D1A0
:1015080023681A6912F0200F03D0DA6812F0200F4E
:1015180037D110BDFFF76BFF2046FFF76AFF81E761
:101528002046FFF764FF2046FFF763FF92E7204657
:10153800FFF75DFF2046FFF75CFFA3E72046FFF7B4
:1015480056FF2046FFF755FFB4E76FF001021A6116
:101558002046FFF74BFFB8E76FF080021A6120467C
:1015680000F0B9F9BAE76FF480721A61204600F00A
:10157800B3F9BCE76FF040021A612046FFF73AFF63
:10158800BEE76FF020021A61204600F0A3F9C0E719
:101598000368304A904212D0B0F1804F0FD0A2F5C4
:1015A800943290420BD002F58062904207D002F547
:1015B8008062904203D002F59432904203D123F026
:1015C80070034A681343234A90421ED0B0F1804FFB
:1015D8001BD0A2F59432904217D002F58062904257
:1015E80013D002F5806290420FD002F594329042F7
:1015F8000BD002F54062904207D002F5806290421B
:1016080003D002F58062904203D123F44073CA6884
:10161800134323F080034A69134303608B68C36252
:101628000B6883620B4B98420FD003F50063984216
:101638000BD003F54063984207D003F580639842C6
:1016480003D003F58063984201D10B69036301233A
:1016580043617047002C0140A8B110B5044690F8CA
:101668003D305BB1022384F83D30211D2068FFF72F
:101678008FFF012384F83D30002010BD80F83C30F6
:1016880000F07EFDEEE701207047000030B4036AE9
:1016980023F010030362036A4468826922F08072AF
:1016A80022F4E6420D6842EA052223F020038D6801
:1016B80043EA0513174DA84203D005F50065A84273
:1016C80006D123F08003CD6843EA051323F04003D5
:1016D800104DA8420FD005F50065A8420BD005F5BE
:1016E8004065A84207D005F58065A84203D005F5F6
:1016F8008065A84207D124F440644D6944EA850412
:101708008D6944EA8504446082614A6882630362A1
:1017180030BC7047002C014038B590F83C30012BA4
:1017280000F092800D460446012380F83C300223E5
:1017380080F83D30142A1ED8DFE802F00B1D1D1D6D
:10174800241D1D1D381D1D1D4B1D1D1D5F1D1D1D2F
:1017580072000068FFF716FD2268936943F00803DA
:1017680093612268936923F0040393612268936963
:1017780029690B439361012384F83D30002084F8E4
:101788003C0038BD0068FFF781FF2268936943F485
:10179800006393612268936923F4806393612268EC
:1017A8009369296943EA01239361E4E70068FFF735
:1017B80037FD2268D36943F00803D3612268D369EF
:1017C80023F00403D3612268D36929690B43D361E9
:1017D800D1E70068FFF76AFD2268D36943F4006324
:1017E800D3612268D36923F48063D3612268D36903
:1017F800296943EA0123D361BDE70068FFF78CFD3F
:101808002268536D43F0080353652268536D23F033
:10181800040353652268536D29690B435365AAE78E
:101828000068FFF7ADFD2268536D43F4006353650C
:101838002268536D23F4806353652268536D2969C8
:1018480043EA0123536596E702209AE710B401F0B2
:101858001F01012303FA01F4036A23EA0403036264
:10186800036A8A40134303625DF8044B7047000023
:1018780010B5044601220068FFF7E8FF2368134A01
:1018880093420FD002F5006293420BD002F54062FA
:10189800934207D002F58062934203D002F580623A
:1018A800934203D15A6C42F400425A642268916808
:1018B800074B0B40062B06D0B3F5803F03D01368C7
:1018C80043F001031360002010BD00BF002C01404D
:1018D8000700010070477047704700002DE9F04885
:1018E8000446016883680269134342691343C26965
:1018F80013430868A24A024013430B6022685368E6
:1019080023F44053E1680B435360A16922689D4B5F
:101918009A4201D0236A1943936823F430630B4336
:1019280093602368984A934227D0984A934238D0C4
:10193800974A93424ED0974A934261D0964A93422F
:1019480074D0904A934200F08A8010258D4A9342C1
:1019580000F0AA80E369B3F5004F00F03581082D47
:1019680000F2BF81DFE815F07F0195019F01BD01FD
:10197800AA01BD01BD01BD01B40102F55842D2F86A
:10198800882002F00302032A09D8DFE802F00204E3
:1019980081060125DAE70425D8E70825D6E71025CA
:1019A800D4E702F5E632D2F8882002F00C020C2ABD
:1019B8000ED8DFE802F0070D0D0D090D0D0D6F0DA6
:1019C8000D0D0B000025C1E70425BFE70825BDE77D
:1019D8001025BBE702F5E432D2F8882002F0300285
:1019E800102A09D005D9202A56D0302A06D1082530
:1019F800ACE71AB90025A9E70425A7E71025A5E74C
:101A080002F5E232D2F8882002F0C002402A09D05A
:101A180005D9802A42D0C02A06D1082596E71AB9E6
:101A2800002593E7042591E710258FE702F5E032BA
:101A3800D2F8882002F44072B2F5807F0BD007D923
:101A4800B2F5007F2CD0B2F5407F06D108257DE79E
:101A58001AB900257AE7042578E7102576E702F514
:101A6800C832D2F8882002F44062B2F5806F0BD0F9
:101A780007D9B2F5006F15D0B2F5406F06D1082529
:101A880064E71AB9002561E704255FE710255DE7DB
:101A980002255BE7022559E7022557E7022555E7A6
:101AA800022553E7022551E7082D00F21D81DFE8E2
:101AB80015F00C001B0114001B0111001B011B0178
:101AC8001B0109004FF4004008E0FFF737FB28B975
:101AD8000020D9E0FEF70AFFF9E73048626802EB18
:101AE8004203834200F20281B0EB023F00F2008120
:101AF800082D66D8DFE805F0056520653065656561
:101B08005800FFF71BFB0025070E06026268500805
:101B18002B4616EB000B47F1000C58466146FEF7C2
:101B28004FFB03462846A3F540711D4A914200F237
:101B3800E1802268D360A7E0560800252B46DFF82D
:101B480064B04FF0000C1BEB06004CF10001FEF7EF
:101B580037FB03462846E6E7FEF7C8FE0025070ED2
:101B68000602626850082B4616EB000B47F1000C82
:101B780058466146FEF724FB03462846D3E700BFD4
:101B8800F369FFEF00800040003801400044004046
:101B980000480040004C0040005000400024F40081
:101BA800FFFC0F00000024F45008002700252B46F6
:101BB80010F5000047F10001FEF702FB0346284636
:101BC800B1E701200023AEE7082D49D8DFE805F08A
:101BD800051E2948344848483F00FFF7AFFA6268B5
:101BE800530803EB4003B3FBF2F39BB20020A3F1CD
:101BF80010014FF6EF7291427ED89AB222F00F028E
:101C0800C3F3420313432268D3603DE0FFF7A8FA09
:101C18006268530803EB4003B3FBF2F39BB2002066
:101C2800E5E76268530803F1F47303F59043B3FBE7
:101C3800F2F39BB20020DAE7FEF758FE6268530819
:101C480003EB4003B3FBF2F39BB20020CFE76268DB
:101C5800530803F58033B3FBF2F39BB20020C6E7C9
:101C680001200023C3E7FFF769FA636800EB53021A
:101C7800B2FBF3F292B20020A2F110014FF6EF731B
:101C880099423BD82368DA60002222666266BDE882
:101C9800F088FFF765FA636800EB5302B2FBF3F2D2
:101CA80092B20020E8E763685A0802F5740202F568
:101CB8001052B2FBF3F292B20020DDE7FEF716FEF7
:101CC800636800EB5302B2FBF3F292B20020D3E751
:101CD80063685A0802F50042B2FBF3F292B20020A0
:101CE800CAE701200022C7E70120CDE70120CBE7A2
:101CF8000120C9E70120C7E70120C5E70120C3E7A4
:101D0800436A13F0010F06D00268536823F40033C6
:101D1800816A0B435360436A13F0020F06D00268CE
:101D2800536823F48033C16A0B435360436A13F04A
:101D3800040F06D00268536823F48023016B0B4319
:101D48005360436A13F0080F06D00268536823F4FF
:101D58000043416B0B435360436A13F0100F06D0E6
:101D68000268936823F48053816B0B439360436A42
:101D780013F0200F06D00268936823F40053C16B58
:101D88000B439360436A13F0400F0AD0026853680C
:101D980023F48013016C0B435360036CB3F5801F6D
:101DA8000BD0436A13F0800F06D00268536823F4FF
:101DB8000023816C0B43536070470268536823F417
:101DC800C003416C0B435360EBE72DE9F041044637
:101DD8000F4616469846069D2368DB6937EA0303D3
:101DE8000CBF01230023B3423AD1B5F1FF3FF3D032
:101DF800FEF7AEFBA0EB0800A8421FD8F5B1236898
:101E08001A6812F0040FE7D0DA6912F4006FE3D011
:101E18004FF400621A622268136823F4D0731360C7
:101E28002268936823F00103936020236367A36704
:101E3800E367002384F87030032012E022681368F7
:101E480023F4D07313602268936823F0010393602E
:101E580020236367A367002384F87030032000E021
:101E68000020BDE8F08130B583B004460023C36785
:101E7800FEF76EFB054623681B6813F0080F0CD1AC
:101E880023681B6813F0040F15D120236367A36729
:101E9800002084F8700003B030BD6FF07E430093DB
:101EA800034600224FF400112046FFF78EFF00285A
:101EB800E6D00320EFE76FF07E4300932B46002225
:101EC8004FF480012046FFF780FF0028DDD0032073
:101ED800E1E768B310B50446436F03B3242363678F
:101EE8002268136823F0010313602046FFF7F6FC0D
:101EF800012813D0636ABBB92268536823F490435E
:101F080053602268936823F02A0393602268136859
:101F180043F0010313602046FFF7A5FF10BD80F8CA
:101F2800703000F073F9D9E72046FFF7E9FEE3E7E0
:101F38000120704708B5FEF7FFFAFEF79EFB08BDC3
:101F480008B50248FFF757FA08BD00BF3000002067
:101F580000B587B00B4BDA6C42F00102DA64DB6C37
:101F680003F001030093009B2023019301230293B4
:101F78000023039301A94FF09040FEF783FB07B0BD
:101F88005DF804FB00100240FEE7000010B596B0B3
:101F9800022305934FF48072089210220C920F933B
:101FA8001093322818D0502846D0142842D1042340
:101FB800119314221292072213920222149215935B
:101FC8000F23009303230193002302934FF48063AC
:101FD80003930493012413E0042311931923129308
:101FE800072313930223149315930F2300930323BA
:101FF8000193002302934FF4806303930493012415
:1020080005A8FEF7CDFC58BB21466846FEF7E4FF5D
:1020180040BBFFF78DF8144BA3FB00308009FEF797
:1020280005FB0420FEF718FB002211464FF0FF3095
:10203800FEF7BAFA16B010BD012311930A231293C2
:10204800072313930224149415940F230093032356
:102058000193002302934FF4806303930493CFE723
:10206800FFF792FFFFF790FFD34D621008B50948BC
:10207800094B03604FF4E133436000238360C3607E
:10208800036183610C234361FFF723FF00B908BD97
:10209800FFF77AFF700000200044004000B589B0C7
:1020A80010484FF0804303600923C36041F287332F
:1020B8004360FFF7D1FA80B900220292039204929A
:1020C8000592069207926023019301A90548FFF73C
:1020D80023FB20B909B05DF804FBFFF755FFFFF7B4
:1020E80053FF00BF3000002010B5FEF70FFA322072
:1020F800FFF74CFFFFF72CFFFFF7B8FFFFF7CEFF06
:1021080000210F48FFF7B4FB08B1FFF73DFF00249B
:1021180009E0143CA4B20A4B1B685C630120FEF77B
:102128001DFA002CF5D1064BDB689C42F9D2143419
:10213800A4B2034B1B685C630120FEF70FFAF2E7B9
:102148003000002008B50320FEF71CFA0B4A536A3A
:1021580043F4E0235362002211466FF00B00FEF7B0
:1021680023FA002211466FF00A00FEF71DFA00223A
:1021780011466FF00900FEF717FA08BD00ED00E000
:1021880070B588B01F4B9A6D42F001029A659A6D3E
:1021980002F001020092009ADA6C42F00102DA645D
:1021A800DA6C02F001020192019ADA6C42F0020242
:1021B800DA64DB6C03F002030293029B03230393AC
:1021C800022404940594002506950126079603A980
:1021D8004FF09040FEF756FA40F2044303930494FC
:1021E80005940695079603A90748FEF74BFA2A4671
:1021F8000F211C20FEF7D8F91C20FEF709FA08B0B9
:1022080070BD00BF001002400004004810B588B03F
:10221800194B9A6D42F400329A659A6D02F40032B5
:102228000192019ADA6C42F00102DA64DB6C03F085
:1022380001030293029B04230393022304930123C3
:102248000593002406940723079303A94FF09040B1
:10225800FEF718FA0823039303A94FF09040FEF7FE
:1022680011FA2620FEF7D4F922460F212620FEF780
:102278009BF908B010BD00BF001002400F49D1F80B
:10228800883043F47003C1F888300D4B1A6842F067
:1022980001021A60002098601A6822F0A85222F4FD
:1022A80010221A604FF48052DA601A6822F48022F1
:1022B8001A6098614FF000638B60704700ED00E092
:1022C80000100240DFF834D0002103E00C4B5B58CB
:1022D800435004310B480C4B42189A42F6D30B4A30
:1022E80002E0002342F8043B094B9A42F9D3FFF776
:1022F800C5FF00F011F8FFF7F7FEFEE700800120A8
:10230800E02300080000002010000020100000203A
:10231800F0000020FEE7000070B50D4E0D4CA41B28
:10232800A4100025A54209D10B4E0C4C00F018F85A
:10233800A41BA4100025A54205D170BD56F8253070
:1023480098470135EEE756F8253098470135F2E70A
:10235800D0230008D0230008D0230008D423000885
:10236800F8B500BFF8BC08BC9E467047F8B500BF7A
:08237800F8BC08BC9E4670474A
:10238000A0860100400D0300801A060000350C00F5
:1023900040420F0080841E0000093D0000127A00B8
:1023A0000024F40000366E010048E801006CDC02F5
:1023B00000000000000000000102030406070809F5
:0823C00000000000010203040B
:0823C80030DEFF7F0100000080
:0823D000AD010008000000004F
:0823D80089010008000000006B
:1023E000010000001000000000093D000000000096
:04000005080022CD00
:00000001FF
