:020000040800F2
:1000000000800120292E0008792E0008792E000892
:10001000792E0008792E0008792E000800000000D3
:10002000000000000000000000000000792E000821
:10003000792E000800000000792E000841280008F1
:10004000792E0008792E0008792E0008792E0008F4
:10005000792E0008792E0008792E0008792E0008E4
:10006000792E0008792E0008792E0008792E0008D4
:10007000792E0008792E0008792E0008792E0008C4
:10008000792E0008792E0008792E0008792E0008B4
:10009000792E0008792E0008792E0008792E0008A4
:1000A000792E0008792E0008792E0008792E000894
:1000B0004D280008792E0008792E0008792E0008B6
:1000C000792E0008792E0008792E0008792E000874
:1000D000792E0008792E0008792E0008792E000864
:1000E000792E0008792E0008792E0008792E000854
:1000F000792E0008792E0008792E0008792E000844
:10010000792E0008792E0008792E0008792E000833
:10011000792E0008792E00085D280008792E000845
:10012000792E0008792E0008792E0008792E000813
:10013000792E0008792E0008792E0008792E000803
:10014000792E0008792E0008792E0008792E0008F3
:10015000792E0008792E0008792E0008792E0008E3
:10016000792E0008792E0008792E0008792E0008D3
:10017000792E0008792E0008792E00080000000072
:08018000792E0008792E000819
:1001900010B5054C237833B9044B13B10448AFF3C1
:1001A00000800123237010BDE80100200000000042
:1001B000584F000808B5034B1BB103490348AFF380
:1001C000008008BD00000000EC010020584F00082E
:1001D00081F0004102E000BF83F0004330B54FEAF8
:1001E00041044FEA430594EA050F08BF90EA020F65
:1001F0001FBF54EA000C55EA020C7FEA645C7FEAF8
:10020000655C00F0E2804FEA5454D4EB5555B8BF1A
:100210006D420CDD2C4480EA020281EA030382EA8B
:10022000000083EA010180EA020281EA0303362D1D
:1002300088BF30BD11F0004F4FEA01314FF4801CF0
:100240004CEA113102D0404261EB410113F0004F02
:100250004FEA03334CEA133302D0524263EB4303B9
:1002600094EA050F00F0A780A4F10104D5F1200E57
:100270000DDB02FA0EFC22FA05F2801841F10001B2
:1002800003FA0EF2801843FA05F359410EE0A5F186
:1002900020050EF1200E012A03FA0EFC28BF4CF0B7
:1002A000020C43FA05F3C01851EBE37101F000456D
:1002B00007D54FF0000EDCF1000C7EEB00006EEB7A
:1002C0000101B1F5801F1BD3B1F5001F0CD3490804
:1002D0005FEA30004FEA3C0C04F101044FEA44525B
:1002E00012F5800F80F09A80BCF1004F08BF5FEAE2
:1002F000500C50F1000041EB045141EA050130BDC2
:100300005FEA4C0C404141EB010111F4801FA4F164
:100310000104E9D191F0000F04BF01460020B1FAB9
:1003200081F308BF2033A3F10B03B3F120020CDAF1
:100330000C3208DD02F1140CC2F10C0201FA0CF0CF
:1003400021FA02F10CE002F11402D8BFC2F1200C34
:1003500001FA02F120FA0CFCDCBF41EA0C019040EA
:10036000E41AA2BF01EB0451294330BD6FEA040433
:100370001F3C1CDA0C340EDC04F11404C4F120021E
:1003800020FA04F001FA02F340EA030021FA04F330
:1003900045EA030130BDC4F10C04C4F1200220FA87
:1003A00002F001FA04F340EA0300294630BD21FAC5
:1003B00004F0294630BD94F0000F83F4801306BF8B
:1003C00081F480110134013D4EE77FEA645C18BF7F
:1003D0007FEA655C29D094EA050F08BF90EA020F16
:1003E00005D054EA000C04BF1946104630BD91EA0E
:1003F000030F1EBF0021002030BD5FEA545C05D111
:100400004000494128BF41F0004130BD14F580044F
:100410003CBF01F5801130BD01F0004545F0FE41C3
:1004200041F470014FF0000030BD7FEA645C1ABFF8
:10043000194610467FEA655C1CBF0B46024650EA2F
:10044000013406BF52EA033591EA030F41F400215B
:1004500030BD00BF90F0000F04BF0021704730B5E1
:100460004FF4806404F132044FF000054FF00001B6
:1004700050E700BF90F0000F04BF0021704730B577
:100480004FF4806404F1320410F0004548BF40424C
:100490004FF000013EE700BF42004FEAE2014FEAA1
:1004A00031014FEA02701FBF12F07F4393F07F4F7C
:1004B00081F06051704732F07F4208BF704793F07F
:1004C0007F4F04BF41F40021704730B54FF4607492
:1004D00001F0004521F000411CE700BF50EA010295
:1004E00008BF704730B54FF000050AE050EA01023E
:1004F00008BF704730B511F0004502D5404261EBAE
:1005000041014FF4806404F132045FEA915C3FF4EE
:10051000D8AE4FF003025FEADC0C18BF03325FEA8B
:10052000DC0C18BF033202EBDC02C2F1200300FA3C
:1005300003FC20FA02F001FA03FE40EA0E0021FA61
:1005400002F11444BDE600BF70B54FF0FF0C4CF44F
:10055000E06C1CEA11541DBF1CEA135594EA0C0F01
:1005600095EA0C0F00F0DEF82C4481EA030621EA3C
:100570004C5123EA4C5350EA013518BF52EA033577
:1005800041F4801143F4801338D0A0FB02CE4FF029
:100590000005E1FB02E506F00042E0FB03E54FF059
:1005A0000006E1FB03569CF0000F18BF4EF0010E51
:1005B000A4F1FF04B6F5007F64F5407404D25FEA4D
:1005C0004E0E6D4146EB060642EAC62141EA555100
:1005D0004FEAC52040EA5E504FEACE2EB4F1FD0C42
:1005E00088BFBCF5E06F1ED8BEF1004F08BF5FEAC0
:1005F000500E50F1000041EB045170BD06F0004672
:1006000046EA010140EA020081EA0301B4EB5C041E
:10061000C2BFD4EB0C0541EA045170BD41F4801116
:100620004FF0000E013C00F3AB8014F1360FDEBF3B
:10063000002001F0004170BDC4F10004203C35DA17
:100640000C341BDC04F11404C4F1200500FA05F39A
:1006500020FA04F001FA05F240EA020001F000423B
:1006600021F0004110EBD37021FA04F642EB0601B1
:100670005EEA430E08BF20EAD37070BDC4F10C04DB
:10068000C4F1200500FA04F320FA05F001FA04F29F
:1006900040EA020001F0004110EBD37041F100018B
:1006A0005EEA430E08BF20EAD37070BDC4F1200596
:1006B00000FA05F24EEA020E20FA04F301FA05F2FE
:1006C00043EA020321FA04F001F0004121FA04F2A6
:1006D00020EA020000EBD3705EEA430E08BF20EA76
:1006E000D37070BD94F0000F0FD101F000464000B0
:1006F00041EB010111F4801F08BF013CF7D041EA32
:10070000060195F0000F18BF704703F00046520035
:1007100043EB030313F4801F08BF013DF7D043EA06
:100720000603704794EA0C0F0CEA135518BF95EABC
:100730000C0F0CD050EA410618BF52EA4306D1D143
:1007400081EA030101F000414FF0000070BD50EA62
:10075000410606BF1046194652EA430619D094EAEC
:100760000C0F02D150EA013613D195EA0C0F05D1D6
:1007700052EA03361CBF104619460AD181EA03012A
:1007800001F0004141F0FE4141F470014FF00000E2
:1007900070BD41F0FE4141F4780170BD70B54FF07D
:1007A000FF0C4CF4E06C1CEA11541DBF1CEA1355FD
:1007B00094EA0C0F95EA0C0F00F0A7F8A4EB0504DF
:1007C00081EA030E52EA03354FEA013100F08880D6
:1007D0004FEA03334FF0805545EA131343EA12639F
:1007E0004FEA022245EA111545EA10654FEA002654
:1007F0000EF000419D4208BF964244F1FD0404F50D
:10080000407402D25B084FEA3202B61A65EB030568
:100810005B084FEA32024FF480104FF4002CB6EB25
:10082000020E75EB030E22BFB61A754640EA0C00A5
:100830005B084FEA3202B6EB020E75EB030E22BFE5
:10084000B61A754640EA5C005B084FEA3202B6EB26
:10085000020E75EB030E22BFB61A754640EA9C00E5
:100860005B084FEA3202B6EB020E75EB030E22BFB5
:10087000B61A754640EADC0055EA060E18D04FEA73
:10088000051545EA16754FEA06164FEAC30343EA13
:1008900052734FEAC2025FEA1C1CC0D111F4801FE0
:1008A0000BD141EA00014FF000004FF0004CB6E7D9
:1008B00011F4801F04BF01430020B4F1FD0C88BF78
:1008C000BCF5E06F3FF6AFAEB5EB030C04BFB6EB83
:1008D000020C5FEA500C50F1000041EB045170BD76
:1008E0000EF0004E4EEA113114EB5C04C2BFD4EBA3
:1008F0000C0541EA045170BD41F480114FF0000E27
:10090000013C90E645EA060E8DE60CEA135594EAA2
:100910000C0F08BF95EA0C0F3FF43BAF94EA0C0FA5
:100920000AD150EA01347FF434AF95EA0C0F7FF41A
:1009300025AF104619462CE795EA0C0F06D152EA6E
:1009400003353FF4FDAE1046194622E750EA410652
:1009500018BF52EA43067FF4C5AE50EA41047FF463
:100960000DAF52EA43057FF4EBAE12E753B94AB933
:10097000002908BF00281CBF4FF0FF314FF0FF30A7
:1009800000F072B9ADF1080C6DE904CE00F006F884
:10099000DDF804E0DDE9022304B070472DE9F047FB
:1009A000089E04468846002B4BD18A42154667D9DB
:1009B000B2FA82F24AB1C2F1200701FA02F320FA38
:1009C00007F7954047EA030894404FEA154E230C79
:1009D000B8FBFEF71FFA85FC0EFB178843EA0843B5
:1009E00007FB0CF1994209D9EB1807F1FF3080F0B1
:1009F0001B81994240F21881023F2B445B1AA4B23A
:100A0000B3FBFEF00EFB103344EA034400FB0CFC86
:100A1000A44509D92C1900F1FF3380F00781A445C2
:100A200040F2048102382C4440EA0740A4EB0C0455
:100A300000271EB1D4400023C6E900433946BDE873
:100A4000F0878B4209D9002E00F0EB800027C6E921
:100A5000000138463946BDE8F087B3FA83F7002F26
:100A600047D18B4202D3824200F2FA80841A61EBB2
:100A7000030301209846002EE0D0C6E90048DDE7D8
:100A800002B9FFDEB2FA82F2002A40F08F80491BE1
:100A90004FEA154E1FFA85F80127B1FBFEFC230C27
:100AA0000EFB1C1143EA014308FB0CF1994207D9E4
:100AB000EB180CF1FF3002D2994200F2CD8084464F
:100AC000591AA3B2B1FBFEF00EFB101443EA044422
:100AD00008FB00F8A04507D92C1900F1FF3302D21A
:100AE000A04500F2B6801846A4EB080440EA0C408A
:100AF0009FE7C7F1200CBB4022FA0CFE4EEA030E22
:100B000001FA07F420FA0CF521FA0CF34FEA1E481B
:100B10002543B3FBF8F92C0C08FB19331FFA8EFAA6
:100B200044EA034309FB0AF49C4202FA07F200FA82
:100B300007F10BD91EEB030309F1FF3080F087802A
:100B40009C4240F28480A9F1020973441B1BADB2A0
:100B5000B3FBF8F008FB103345EA034400FB0AFA44
:100B6000A24508D91EEB040400F1FF336BD2A24565
:100B700069D90238744440EA0940A0FB0289A4EB19
:100B80000A044C45C2464B4654D351D0002E69D07E
:100B9000B1EB0A0564EB030404FA0CFCFD40FC40D5
:100BA0004CEA0505C6E90054002747E7C2F12003D7
:100BB00020FA03F7954001FA02F021FA03F34FEA15
:100BC000154E3843010CB3FBFEF71FFA85F80EFBF8
:100BD000173341EA034107FB08F38B4204FA02F49E
:100BE00007D9691807F1FF3C2FD28B422DD9023F5C
:100BF0002944CB1A81B2B3FBFEF00EFB103341EA5D
:100C0000034100FB08F38B4207D9691800F1FF3C50
:100C100017D28B4215D902382944C91A40EA07472E
:100C20003BE73746304609E70746E7E61846FBE666
:100C30004145ABD2B8EB020A69EB0E02013813460C
:100C4000A4E76046E9E7184695E76746D1E781469D
:100C50007CE702382C4447E7ACF1020C2B442FE729
:100C6000384608E73746E9E6704700BF034613F801
:100C7000012B002AFBD1181A013870470000000030
:100C800001F0FF01102A2BDB10F0070F08D010F83D
:100C9000013B013A8B422DD010F0070F42B3F6D141
:100CA000F0B441EA012141EA014122F007047FF05A
:100CB00000070023F0E80256083C85EA010586EAB1
:100CC000010685FA47F5A3FA87F586FA47F6A5FAED
:100CD00087F68EB9EED1F0BC01F0FF0102F00702F9
:100CE00032B110F8013B013A83EA010313B1F8D1A4
:100CF0000020704701387047002D06BF3546033885
:100D0000073815F0010F07D1013015F4807F02BFBD
:100D1000013015F4C03F0130F0BC0138704700BF0E
:100D20004FF0FF3C06E000BF4FF0010C02E000BFB7
:100D30004FF0010C4DF804CD4FEA410C7FEA6C5C9A
:100D40004FEA430C18BF7FEA6C5C1BD001B050EA3D
:100D5000410C0CBF52EA430C91EA030F02BF90EA28
:100D6000020F0020704710F1000F91EA030F58BFE7
:100D7000994208BF90422CBFD8176FEAE37040F049
:100D8000010070474FEA410C7FEA6C5C02D150EAE7
:100D9000013C07D14FEA430C7FEA6C5CD6D152EAA2
:100DA000033CD3D05DF8040B704700BF8446104667
:100DB00062468C461946634600E000BF01B5FFF766
:100DC000B7FF002848BF10F1000F01BD4DF808ED36
:100DD000FFF7F4FF0CBF012000205DF808FB00BF07
:100DE0004DF808EDFFF7EAFF34BF012000205DF861
:100DF00008FB00BF4DF808EDFFF7E0FF94BF0120AE
:100E000000205DF808FB00BF4DF808EDFFF7CEFFAE
:100E100094BF012000205DF808FB00BF4DF808EDED
:100E2000FFF7C4FF34BF012000205DF808FB00BFBE
:100E30004FEA410C7FEA6C5C02D150EA013C0AD1D6
:100E40004FEA430C7FEA6C5C02D152EA033C02D1C8
:100E50004FF0000070474FF0010070474FEA410229
:100E600012F5001215D211D56FF47873B3EB6252FC
:100E700012D94FEAC12343F0004343EA505311F023
:100E8000004F23FA02F018BF404270474FF00000B5
:100E9000704750EA013005D111F0004008BF6FF0F3
:100EA000004070474FF00000704700BF70470000DF
:100EB000104B1B680BB90120704710B504464FF466
:100EC0007A70B0FBF3F30C4A1068B0FBF3F000F05B
:100ED000A5F868B90F2C01D901200AE000222146AB
:100EE0004FF0FF3000F058F8024B5C60002000E04B
:100EF000012010BD000000201000002010B5094A9C
:100F0000136843F480731360032000F033F800206B
:100F1000FFF7CEFF10B10124204610BD0446FFF7B5
:100F2000C5FFF9E700200240034A13680349096836
:100F30000B441360704700BF28020020000000200F
:100F4000014B1868704700BF2802002038B50446DE
:100F5000FFF7F6FF0546B4F1FF3F02D0044B1B68D4
:100F60001C44FFF7EDFF401BA042FAD338BD00BF81
:100F700000000020074AD36823F4E0631B041B0C25
:100F8000000200F4E060184340F0BF6040F400301D
:100F9000D060704700ED00E030B4174BDB68C3F35E
:100FA0000223C3F10704042C28BF04241D1D062DB1
:100FB00018D9033B4FF0FF3505FA04F421EA040188
:100FC000994005FA03F322EA0303194300280BDBD7
:100FD0000901C9B200F1604000F5614080F80013DA
:100FE00030BC70470023E5E700F00F000901C9B2EB
:100FF000024B1954F4E700BF00ED00E014ED00E0EF
:10100000002807DB00F01F02400901239340024A39
:1010100042F82030704700BF00E100E00138B0F135
:10102000807F0AD2064B5860064AF02182F82310CE
:101030000020986007221A6070470120704700BFA7
:1010400010E000E000ED00E0042805D0054A136838
:1010500023F0040313607047024A136843F004034B
:101060001360704710E000E0704708B5FFF7FCFF21
:1010700008BD0000F0B583B000233FE0C66A26EA51
:101080000406C5F3C0049C403443C4625FE00624F8
:1010900000E00024B4403C430235644E46F825404D
:1010A000634C2568D44304EA05064F6817F4803F73
:1010B00001D042EA05065E4D2E606D6804EA050621
:1010C0004F6817F4003F01D042EA0506584D6E60A4
:1010D000AD6804EA05064F6817F4801F01D042EAA4
:1010E0000506534DAE60ED682C404E6816F4001FA7
:1010F00001D042EA05044E4AD46001330A6832FA4C
:1011000003F400F0918001249C402240F5D04D680A
:101110006E1E012E03D9112D01D0122D12D1866819
:101120005F000325BD4026EA0506CD68BD40354376
:101130008560466826EA04064D68C5F300159D40A3
:10114000354345604D6805F00306032E96D0C5680B
:101150005F000324BC40E44325408E68BE402E431C
:10116000C6604D68022D01D0122D13D1DE0808365D
:1011700050F826E003F007054FEA850C0F2505FA25
:101180000CF52EEA050E0D6905FA0CF545EA0E057B
:1011900040F8265005682C404D6805F00305BD4019
:1011A0002C4304604C6814F0805FA6D0214C256E5F
:1011B00045F001052566246E04F001040194019CAC
:1011C0009D08AE1C194C54F8267003F00304A600C9
:1011D0000F24B44027EA0407B0F1904F3FF459AF11
:1011E000154CA04216D004F58064A04214D004F53A
:1011F0008064A04212D004F58064A04210D004F5AF
:101200008064A0420ED004F58064A0423FF43FAF5A
:1012100007243FE701243DE702243BE7032439E7A5
:10122000042437E7052435E703B0F0BD0000014092
:101230000004014000100240000400480AB9816225
:1012400070478161704743690B4201D181617047EA
:1012500081627047024B186800F4C060704700BF9D
:101260000070004030B583B00546204B9B6D13F0F5
:10127000805F0BD0FFF7EEFFB0F5007F17D0802D19
:101280001FD82DD0702D2DD000211BE0174CA36D41
:1012900043F08053A365A36D03F080530193019B3A
:1012A000FFF7D8FFA36D23F08053A365E4E7802DFB
:1012B00003D9A02D03D9022104E0002102E001217D
:1012C00000E003210A4A136823F007030B4313606D
:1012D000136803F007038B4206D0012003B030BD32
:1012E0000221EFE70121EDE70020F7E700100240BF
:1012F0000020024070B586B00D4616460F4CE36CD8
:1013000043F00103E364E36C03F001030093009BEB
:101310004FF48073019302230293049300230393F9
:10132000059301A94FF09040FFF7A4FEA26822F0B8
:10133000EE4235432A43A26006B070BD0010024061
:10134000284A9368D26802F0030213F00C030AD013
:101350000C2B06D0042B1FD0082B20D000200246D7
:1013600010E0012AF6D11F4A126812F0080F0CD1C2
:101370001C4AD2F89420C2F303221B4951F82220C0
:1013800043B100200C2B0DD07047164A1268C2F3EF
:101390000312F2E71046F5E714480022F2E714487A
:1013A0000022EFE70F4BDB6803F00303022B15D09D
:1013B000032B15D00B4BD868C0F302100130D9684D
:1013C000C1F3062102FB01F2B2FBF0F2D868C0F3D0
:1013D000416001304000B2FBF0F0D5E7034AE9E795
:1013E000034AE7E700100240704F00080024F400B1
:1013F00000127A00002800F00083F0B583B00446A4
:10140000AF4B9D6805F00C05DE6806F00306036827
:1014100013F0100F5BD0E5B10C2D18D0A369002B91
:1014200000F0BC80A64A136843F001031360FFF785
:1014300087FD0746A24B1B6813F0020F40F09B800C
:10144000FFF77EFDC01B0228F4D90323E1E2012E41
:10145000E4D19B4B1B6813F0020F03D0A369002B50
:1014600000F0CE82206A964B1B6813F0080F5CD008
:10147000934B1B6803F0F00398425DD8904B1A68B9
:1014800042F008021A601A6822F0F002216A0A4348
:101490001A605A6822F47F42E16942EA01225A60E6
:1014A000002D61D0FFF74CFF854B9B68C3F30313FE
:1014B000844AD35C03F01F03D840834B1860834BEE
:1014C0001868FFF7F5FC0346002840F0A282236865
:1014D00013F0010F00F08180082D75D00C2D71D014
:1014E0006368B3F5803F00F09780B3F5A02F00F05C
:1014F0009980734B1A6822F480321A601A6822F4B9
:1015000080221A606368002B00F09980FFF718FDB5
:1015100007466B4B1B6813F4003F5ED1FFF710FDCD
:10152000C01B6428F5D9032373E2654BD3F89430CC
:101530001B0903F0F0039FE7FFF794FE002840F03B
:1015400061825F4B1A6842F008021A601A6822F042
:10155000F002216A0A431A605A6822F47F42E16964
:1015600042EA01225A609DE7206AFFF77BFE0028CD
:1015700098D001234DE2524B1A6842F008021A60DB
:101580001A6822F0F002216A0A431A605A6822F4AB
:101590007F42E16942EA01225A6098E7484A1368AB
:1015A00023F001031360FFF7CBFC0746444B1B6895
:1015B00013F0020F8BD0FFF7C3FCC01B0228F5D934
:1015C000032326E2032E8BD13D4B1B6813F4003F0F
:1015D00003D06368002B00F01782236813F0020F1A
:1015E0004FD0042D3CD00C2D38D0E368002B78D0A0
:1015F000334A136843F480731360FFF7A1FC064677
:101600002F4B1B6813F4806F62D1FFF799FC801B8E
:101610000228F5D90323FCE1294A136843F48033F7
:1016200013606FE703F18043A3F53C331A6842F47B
:1016300080221A601A6842F480321A6062E7FFF76B
:101640007FFC07461E4B1B6813F4003FC5D0FFF715
:1016500077FCC01B6428F5D90323DAE1022EC4D13C
:10166000174B1B6813F4806F03D0E368002B00F066
:10167000CD81134A536823F0F853216943EA01638B
:101680005360236813F0080F56D06369002B3CD0D9
:101690000B4AD2F8943043F00103C2F89430FFF7BC
:1016A0004FFC0646064BD3F8943013F0020F43D19B
:1016B000FFF746FC801B0228F4D90323A9E100BFF1
:1016C00000100240A04F000810000020040000207D
:1016D000B84A536823F0F853216943EA0163536021
:1016E000CFE7B44A136823F480731360FFF728FC34
:1016F0000646B04B1B6813F4806FC2D0FFF720FC86
:10170000801B0228F5D9032383E1AA4AD2F894303A
:1017100023F00103C2F89430FFF712FC0646A54BF4
:10172000D3F8943013F0020F06D0FFF709FC801BAA
:101730000228F4D903236CE1236813F0040F7AD054
:101740009C4B9B6D13F0805F0BD19A4B9A6D42F0CE
:1017500080529A659B6D03F080530193019B012693
:1017600000E00026944B1B6813F4807F26D0A3680A
:10177000012B37D0052B3DD08E4BD3F8902022F093
:101780000102C3F89020D3F8902022F00402C3F89D
:101790009020A368002B3BD0FFF7D2FB0746854B78
:1017A000D3F8903013F0020F44D1FFF7C9FBC01BF0
:1017B00041F288339842F2D903232AE17E4A136822
:1017C00043F480731360FFF7BBFB07467A4B1B683B
:1017D00013F4807FCBD1FFF7B3FBC01B0228F5D9F0
:1017E000032316E1734AD2F8903043F00103C2F8A4
:1017F0009030CEE76F4BD3F8902042F00402C3F84C
:101800009020D3F8902042F00102C3F89020C0E766
:10181000FFF796FB0746674BD3F8903013F0020FA3
:1018200008D0FFF78DFBC01B41F288339842F2D9F4
:101830000323EEE06EBBA36A002B00F0E980022BCD
:101840002DD00C2D00F0EE805A4B1A6822F08072D9
:101850001A601B6813F0205F04D1564AD36823F046
:101860000303D360534AD36823F0887323F480338F
:10187000D360FFF765FB04464E4B1B6813F0007FF7
:1018800000F0B980FFF75CFB001B0228F4D90323AA
:10189000BFE0484A936D23F080539365CBE7454BF7
:1018A000DB6803F00301E26A91420FD00C2D00F0D7
:1018B000B380404B1B6813F0806F40F0AF803D4B0E
:1018C0001B6813F0805F2DD00123A2E003F07002AB
:1018D000216B0139B2EB011FE8D103F4FE42616BC9
:1018E000B2EB012FE2D103F40031A26B073A18BF2B
:1018F00001229142DAD103F4C001E26B5208013AAD
:10190000B1EB425FD2D103F0C063226C5208013ABE
:10191000B3EB426FCAD1274B1B6813F0007F51D045
:10192000002376E0234A136823F080731360FFF7E7
:1019300007FB05461F4B1B6813F0007F06D0FFF71F
:10194000FFFA401B0228F5D9032362E0194AD36845
:101950001A491940E36A206B013843EA0013606BAF
:1019600043EA0023E06B4008013843EA4053206C0F
:101970004008013843EA4063A06B000943EA404352
:101980000B43D360136843F080731360D36843F054
:101990008073D360FFF7D4FA0446064B1B6813F03C
:1019A000007F0DD1FFF7CCFA001B0228F5D90323E5
:1019B0002FE000BF00100240007000408C809DF9B5
:1019C000002326E0184B1A6842F080721A60DA6829
:1019D00042F08072DA60FFF7B3FA044604E0FFF7E2
:1019E000AFFA001B02281BD80F4B1B6813F0007FB7
:1019F000F5D000230DE000230BE0012318467047CB
:101A0000012306E0012304E0012302E0012300E0BA
:101A10000023184603B0F0BD0123FAE70123F8E7DD
:101A20000323F6E70123F4E700100240002800F04A
:101A30009B8070B504464E4B1B6803F007038B4236
:101A40000CD24B4A136823F007030B43136013684F
:101A500003F007038B4201D0012070BD0D462368BF
:101A600013F0010F39D06368032B09D0022B26D065
:101A700063BB404A126812F0020F06D10120ECE766
:101A80003C4A126812F0007F70D03A498A6822F00E
:101A9000030213438B60FFF753FA0646354B9B68EE
:101AA00003F00C036268B3EB820F16D0FFF748FA1D
:101AB000801B41F288339842F0D90320CDE72D4AAC
:101AC000126812F4003FE0D10120C6E7294A1268EB
:101AD00012F4806FD9D10120BFE7236813F0020F01
:101AE00006D0244A936823F0F003A1680B43936067
:101AF0001F4B1B6803F00703AB420CD91C4A136849
:101B000023F007032B431360136803F00703AB4272
:101B100001D00120A1E7236813F0040F06D0154A75
:101B2000936823F4E063E1680B439360236813F048
:101B3000080F07D00F4A936823F46053216943EAE2
:101B4000C1039360FFF7FCFB0A4B9B68C3F30313CD
:101B5000094AD35C03F01F03D840084B1860084BB8
:101B60001868FFF7A5F978E701207047012074E7AE
:101B70000020024000100240A04F0008100000208A
:101B800004000020014B1868704700BF10000020BF
:101B900008B5FFF7F7FF054B9B68C3F30223044A20
:101BA000D35C03F01F03D84008BD00BF0010024003
:101BB000B04F000808B5FFF7E5FF054B9B68C3F37E
:101BC000C223044AD35C03F01F03D84008BD00BF02
:101BD00000100240B04F000830B4046A24F0100432
:101BE00004628469056A24F4407444EA022222F4FF
:101BF00070421B039BB21A4325F0A005090101F0B6
:101C0000A00129438261016230BC704730B4046A8C
:101C100024F480740462C469056A24F00304224336
:101C200022F0F0021B01DBB21A4325F42065090201
:101C300001F420612943C261016230BC704730B4B5
:101C4000046A24F480540462C469056A24F440746C
:101C500044EA022222F470421B039BB21A4325F489
:101C60002045090301F420412943C261016230BCCF
:101C7000704700000268D36843F00103D360026834
:101C80009168064B0B40062B06D0B3F5803F03D07E
:101C9000136843F001031360002070470700010040
:101CA000704770477047704710B5044603681A695B
:101CB00012F0020F11D0DA6812F0020F0DD06FF09F
:101CC00002021A610123037703689B6913F0030F73
:101CD00079D000F07BFE0023237723681A6912F085
:101CE000040F12D0DA6812F0040F0ED06FF0040265
:101CF0001A610223237723689B6913F4407F68D01D
:101D0000204600F063FE0023237723681A6912F04F
:101D1000080F12D0DA6812F0080F0ED06FF0080228
:101D20001A61042323772368DB6913F0030F57D06C
:101D3000204600F04BFE0023237723681A6912F037
:101D4000100F12D0DA6812F0100F0ED06FF01002E0
:101D50001A61082323772368DB6913F4407F46D098
:101D6000204600F033FE0023237723681A6912F01F
:101D7000010F03D0DA6812F0010F3FD123681A690E
:101D800012F0800F03D0DA6812F0800F3DD1236883
:101D90001A6912F4807F03D0DA6812F0800F3BD109
:101DA00023681A6912F0400F03D0DA6812F0400F6E
:101DB00039D123681A6912F0200F03D0DA6812F0C3
:101DC000200F37D110BDFFF76CFF2046FFF76AFFE9
:101DD00081E72046FFF765FF2046FFF763FF92E7A4
:101DE0002046FFF75EFF2046FFF75CFFA3E7204693
:101DF000FFF757FF2046FFF755FFB4E76FF00102EA
:101E00001A612046FFF74CFFB8E76FF080021A61B5
:101E1000204600F07AF9BAE76FF480721A61204622
:101E200000F074F9BCE76FF040021A612046FFF73A
:101E30003AFFBEE76FF020021A61204600F064F915
:101E4000C0E700000368304A904212D0B0F1804FE2
:101E50000FD0A2F5943290420BD002F580629042EE
:101E600007D002F58062904203D002F5943290428E
:101E700003D123F070034A681343234A90421ED0D3
:101E8000B0F1804F1BD0A2F59432904217D002F5EA
:101E90008062904213D002F5806290420FD002F52A
:101EA000943290420BD002F54062904207D002F586
:101EB0008062904203D002F58062904203D123F405
:101EC0004073CA68134323F080034A6913430360D5
:101ED0008B68C3620B6883620B4B98420FD003F58B
:101EE000006398420BD003F54063984207D003F596
:101EF0008063984203D003F58063984201D10B6957
:101F00000363012343617047002C0140A8B110B561
:101F1000044690F83D305BB1022384F83D30211D2A
:101F20002068FFF78FFF012384F83D30002010BDAB
:101F300080F83C3000F0D2FEEEE701207047000050
:101F400070B4046A24F0010404628469056A174EBF
:101F5000B04219D0B0F1804F16D0A6F59436B042F9
:101F600012D006F58066B0420ED006F58066B0420B
:101F70000AD006F59436B04206D006F54066B04267
:101F800002D044F0010202E024F00304224322F0D4
:101F9000F0021B01DBB2134325F00A0201F00A0133
:101FA00011438361016270BC704700BF002C014087
:101FB00038B590F83C30012B58D00D46044601232B
:101FC00080F83C30022380F83D30DAB1042A2AD070
:101FD000082A3AD0CB684A6809680068FFF72FFEE4
:101FE0002268D36923F44063D3612268D369A96866
:101FF00043EA0123D361012384F83D30002084F8B3
:102000003C0038BDCB684A6809680068FFF798FF54
:102010002268936923F00C03936122689369A9688D
:102020000B439361E7E7CB684A6809680068FFF7EC
:10203000D3FD2268936923F4406393612268936916
:10204000A96843EA01239361D5E7CB684A68096828
:102050000068FFF7DBFD2268D36923F00C03D3612E
:102060002268D369A9680B43D361C4E70220C8E79B
:1020700010B401F01F01012303FA01F4036A23EAFB
:1020800004030362036A8A40134303625DF8044B4E
:102090007047000010B504460C290DD8DFE801F0A8
:1020A000070C0C0C1F0C0C0C250C0C0C2B000268E4
:1020B000D36843F00203D36001222068FFF7D8FF02
:1020C000226891680F4B0B40062B06D0B3F5803F7A
:1020D00003D0136843F001031360002010BD0268B1
:1020E000D36843F00403D360E6E70268D36843F0A3
:1020F0000803D360E0E70268D36843F01003D360BD
:10210000DAE700BF07000100704770477047000022
:102110002DE9F04804460168836802691343426967
:102120001343C26913430868A24A024013430B6079
:102130002268536823F44053E1680B435360A1695C
:1021400022689D4B9A4201D0236A1943936823F475
:1021500030630B4393602368984A934227D0984A90
:10216000934238D0974A93424ED0974A934261D0D7
:10217000964A934274D0904A934200F08A80102588
:102180008D4A934200F0AA80E369B3F5004F00F056
:102190003581082D00F2BF81DFE815F07F01950140
:1021A0009F01BD01AA01BD01BD01BD01B40102F540
:1021B0005842D2F8882002F00302032A09D8DFE847
:1021C00002F0020481060125DAE70425D8E7082594
:1021D000D6E71025D4E702F5E632D2F8882002F0DF
:1021E0000C020C2A0ED8DFE802F0070D0D0D090DC8
:1021F0000D0D6F0D0D0D0B000025C1E70425BFE788
:102200000825BDE71025BBE702F5E432D2F88820A7
:1022100002F03002102A09D005D9202A56D0302ADF
:1022200006D10825ACE71AB90025A9E70425A7E7D8
:102230001025A5E702F5E232D2F8882002F0C002AC
:10224000402A09D005D9802A42D0C02A06D10825C3
:1022500096E71AB9002593E7042591E710258FE743
:1022600002F5E032D2F8882002F44072B2F5807FA5
:102270000BD007D9B2F5007F2CD0B2F5407F06D144
:1022800008257DE71AB900257AE7042578E71025A7
:1022900076E702F5C832D2F8882002F44062B2F53F
:1022A000806F0BD007D9B2F5006F15D0B2F5406F33
:1022B00006D1082564E71AB9002561E704255FE720
:1022C00010255DE702255BE7022559E7022557E760
:1022D000022555E7022553E7022551E7082D00F2B4
:1022E0001D81DFE815F00C001B0114001B0111001B
:1022F0001B011B011B0109004FF4004008E0FFF720
:1023000047FC28B90020D9E0FFF71AF8F9E7304870
:10231000626802EB4203834200F20281B0EB023FAB
:1023200000F20081082D66D8DFE805F0056520651C
:10233000306565655800FFF72BFC0025070E060287
:10234000626850082B4616EB000B47F1000C58460C
:102350006146FEF70BFB03462846A3F540711D4A74
:10236000914200F2E1802268D360A7E05608002580
:102370002B46DFF864B04FF0000C1BEB06004CF16D
:102380000001FEF7F3FA03462846E6E7FEF7D8FF1A
:102390000025070E0602626850082B4616EB000B5C
:1023A00047F1000C58466146FEF7E0FA034628461E
:1023B000D3E700BFF369FFEF008000400038014021
:1023C0000044004000480040004C004000500040E5
:1023D0000024F400FFFC0F00000024F45008002744
:1023E00000252B4610F5000047F10001FEF7BEFA6C
:1023F00003462846B1E701200023AEE7082D49D85F
:10240000DFE805F0051E2948344848483F00FFF73B
:10241000BFFB6268530803EB4003B3FBF2F39BB2CC
:102420000020A3F110014FF6EF7291427ED89AB2CC
:1024300022F00F02C3F3420313432268D3603DE04E
:10244000FFF7B8FB6268530803EB4003B3FBF2F3FA
:102450009BB20020E5E76268530803F1F47303F5CB
:102460009043B3FBF2F39BB20020DAE7FEF768FF7C
:102470006268530803EB4003B3FBF2F39BB2002006
:10248000CFE76268530803F58033B3FBF2F39BB2E6
:102490000020C6E701200023C3E7FFF779FB63684C
:1024A00000EB5302B2FBF3F292B20020A2F1100152
:1024B0004FF6EF7399423BD82368DA600022226618
:1024C0006266BDE8F088FFF775FB636800EB5302B6
:1024D000B2FBF3F292B20020E8E763685A0802F513
:1024E000740202F51052B2FBF3F292B20020DDE763
:1024F000FEF726FF636800EB5302B2FBF3F292B2E1
:102500000020D3E763685A0802F50042B2FBF3F2F9
:1025100092B20020CAE701200022C7E70120CDE7E0
:102520000120CBE70120C9E70120C7E70120C5E76B
:102530000120C3E7436A13F0010F06D00268536815
:1025400023F40033816A0B435360436A13F0020F94
:1025500006D00268536823F48033C16A0B4353608A
:10256000436A13F0040F06D00268536823F48023F3
:10257000016B0B435360436A13F0080F06D00268E7
:10258000536823F40043416B0B435360436A13F0D9
:10259000100F06D00268936823F48053816B0B43BD
:1025A0009360436A13F0200F06D00268936823F407
:1025B0000053C16B0B439360436A13F0400F0AD082
:1025C0000268536823F48013016C0B435360036C5F
:1025D000B3F5801F0BD0436A13F0800F06D002685A
:1025E000536823F40023816C0B43536070470268E7
:1025F000536823F4C003416C0B435360EBE72DE9B0
:10260000F04104460F4616469846069D2368DB694E
:1026100037EA03030CBF01230023B3423AD1B5F1DB
:10262000FF3FF3D0FEF78CFCA0EB0800A8421FD8B8
:10263000F5B123681A6812F0040FE7D0DA6912F4D2
:10264000006FE3D04FF400621A622268136823F42B
:10265000D07313602268936823F0010393602023F2
:102660006367A367E367002384F87030032012E0F8
:102670002268136823F4D07313602268936823F0F0
:102680000103936020236367A367002384F87030FD
:10269000032000E00020BDE8F0812DE9F04182B088
:1026A0001E46436F202B55D104460D469046002907
:1026B00055D0002A55D090F87030012B53D001230B
:1026C00080F870300023C36721234367FEF738FC8E
:1026D0000746A4F85080A4F85280A368B3F5805F41
:1026E00005D04FF00008002384F8703013E0236910
:1026F00013B14FF00008F6E7A8460025F3E738F8D5
:10270000023B2268C3F308031385B4F85230013B3F
:102710009BB2A4F85230B4F852309BB273B1009619
:102720003B46002280212046FFF769FFE8B9002DD3
:10273000E5D0236815F8012B1A85E6E700963B469D
:10274000002240212046FFF75AFF034678B9202295
:10275000626700E00223184602B0BDE8F081012361
:10276000F9E70123F7E70223F5E70323F3E7032360
:10277000F1E730B583B004460023C367FEF7E0FB02
:10278000054623681B6813F0080F0CD123681B68EB
:1027900013F0040F15D120236367A367002084F88A
:1027A000700003B030BD6FF07E43009303460022FB
:1027B0004FF400112046FFF722FF0028E6D0032047
:1027C000EFE76FF07E4300932B4600224FF4800129
:1027D0002046FFF714FF0028DDD00320E1E768B3AF
:1027E00010B50446436F03B324236367226813685C
:1027F00023F0010313602046FFF78AFC012813D061
:10280000636ABBB92268536823F49043536022681B
:10281000936823F02A0393602268136843F001034E
:1028200013602046FFF7A5FF10BD80F8703000F060
:1028300081FAD9E72046FFF77DFEE3E701207047E4
:1028400008B5FEF771FBFEF710FC08BD08B502489D
:10285000FFF72AFA08BD00BFD002002008B52021EA
:102860004FF09040FEF7EFFC0148FFF71DFA08BD5E
:1028700090020020F8B5344E344D4FF0FF333288CB
:10288000334909682846FFF708FF324C64273A4667
:102890000021204600F01CFBFEF752FD02462E49A7
:1028A000204600F079FF2046FEF7E0F982B2328040
:1028B0004FF0FF3321462846FFF7EFFE3A4600214E
:1028C000204600F005FBFFF75DF90246234920464C
:1028D00000F062FF2046FEF7C9F982B232804FF065
:1028E000FF3321462846FFF7D8FE3A46002120460E
:1028F00000F0EEFAFFF74CF902461949204600F0C5
:102900004BFF2046FEF7B2F982B232804FF0FF3320
:1029100021462846FFF7C1FE3A460021204600F036
:10292000D7FAFFF747F902460E49204600F034FF78
:102930002046FEF79BF982B232804FF0FF332146EA
:102940002846FFF7AAFEF8BD04020020100300206D
:10295000080000202C020020B84F0008C84F0008D3
:10296000D44F0008E44F0008F0B58DB0164BDA6C78
:1029700042F00102DA64DB6C03F001030193019B76
:1029800020260796012708970024099407A94FF0ED
:102990009040FEF76FFB4FF4007502950397049487
:1029A00002A94FF09040FEF765FB224631464FF0FA
:1029B0009040FEF743FC224629464FF09040FEF738
:1029C0003DFC0DB0F0BD00BF001002400D4B9B78E8
:1029D0002BB90D4B1B79012B02D0022B08D070476D
:1029E0000268516B074A51600133074A13717047FF
:1029F00003685A6B034B9A60012203490A719A706B
:102A0000EDE700BF040200200800002080B501228D
:102A10004FF480714FF09040FEF710FC134C3C22B5
:102A20000021204600F054FA114D283C05F1200702
:102A30002E460FCE20606160A260E3603546103400
:102A4000BE42F5D103CD206061600A4C2046FEF7FE
:102A50000DF982B2084B1A804FF0FF332146074828
:102A6000FFF71BFE0A20FEF771FAFEE75402002072
:102A7000F44F00082C020020040200201003002064
:102A800000B597B04022002106A800F021FA0223E9
:102A900005934FF48073089305A8FEF7ABFCC8B903
:102AA0000F230093012301930021029103910491CC
:102AB0006846FEF7BBFF78B9FFF764F8074BA3FB46
:102AC00000308009FEF7AAFA0420FEF7BDFA17B01D
:102AD0005DF804FBFFF79AFFFFF798FFD34D6210F4
:102AE00008B50948094B03604FF4E1334360002304
:102AF0008360C36003610C234361FFF770FE00B97C
:102B000008BDFFF783FF00BF100300200044004012
:102B100000B585B00F484FF0804303600023836009
:102B20004FF0FF33C36001234360FFF7EFF968B94B
:102B30000022039200920292012301936946054804
:102B4000FFF736FA20B905B05DF804FBFFF75EFF2A
:102B5000FFF75CFFD002002000B593B0042301937F
:102B60000123039301A8FEF745FC48B94FF000523A
:102B70004FF040710020FEF7BDFB13B05DF804FB81
:102B8000FFF744FF08B50748074B0360182343606D
:102B900040F23F63C360FFF7B9F900B908BDFFF722
:102BA00035FF00BF9002002000100040F8B5FEF78E
:102BB000A5F9FFF765FFFFF7D7FEFFF7E3FFFFF784
:102BC000A7FFFFF78DFFFFF755FEFFF7C5FF3A4858
:102BD000FFF750F800213948FFF75CFA384E5222CF
:102BE0000021304600F074F9A6F11205354C0FCCE7
:102BF00046F8120C46F80E1C46F80A2C46F8063C1D
:102C0000238826F8023C2846FEF730F882B22E4B85
:102C10001A804FF0FF3329462C48FFF73EFD3EE077
:102C20009B1A013B284AD360FEF7B2FF4000234BBA
:102C30005B680133B0FBF3F0FDF70CFC02460B467A
:102C400000202349FDF7AAFD06460F461E4DE86801
:102C5000FDF700FC32463B46FDF776FC02460B468C
:102C600000201B49FDF79AFD06460F46194C6422C9
:102C70000021204600F02CF932463B4616492046FA
:102C800000F08AFD2046FDF7F1FF82B22A804FF066
:102C9000FF3321460D48FFF700FD0023AB700A4BC0
:102CA0009B78002BFBD0084A936852689342B7D9AF
:102CB0009B1A054AD360B7E790020020D00200209B
:102CC0003E0200201C5000080402002010030020D7
:102CD0000000F03F2C0200203050000800B589B001
:102CE000134B9A6D42F001029A659A6D02F001024F
:102CF0000192019ADA6C42F00102DA64DB6C03F0B3
:102D000001030293029B012303930222049207937F
:102D100003A94FF09040FEF7ADF900220F211C20CF
:102D2000FEF73AF91C20FEF76BF909B05DF804FBD9
:102D30000010024010B588B0194B9A6D42F4003271
:102D40009A659A6D02F400320192019ADA6C42F0AF
:102D50000102DA64DB6C03F001030293029B04239B
:102D6000039302230493012305930024069407236D
:102D7000079303A94FF09040FEF77CF908230393D3
:102D800003A94FF09040FEF775F92620FEF738F9B9
:102D900022460F212620FEF7FFF808B010BD00BF25
:102DA0000010024008B503460B4A126842B10A4AB5
:102DB000106803446A46934206D8074A136008BD68
:102DC000054A06491160F2E700F058F80C23036049
:102DD0004FF0FF30F3E700BF1802002098030020F7
:102DE0000F49D1F8883043F47003C1F888300D4B97
:102DF0001A6842F001021A60002098601A6822F0F6
:102E0000A85222F410221A604FF48052DA601A6835
:102E100022F480221A6098614FF000638B60704743
:102E200000ED00E000100240DFF834D0002103E0A4
:102E30000C4B5B58435004310B480C4B42189A42E0
:102E4000F6D30B4A02E0002342F8043B094B9A42B6
:102E5000F9D3FFF7C5FF00F017F8FFF7A7FEFEE76D
:102E600000800120D052000800000020E80100206E
:102E7000E801002094030020FEE70000014B1868E1
:102E8000704700BF1400002070B50D4E0D4CA41B00
:102E9000A4100025A54209D10B4E0C4C02F05CF8A1
:102EA000A41BA4100025A54205D170BD56F82530FD
:102EB00098470135EEE756F8253098470135F2E797
:102EC000C0520008C0520008C0520008C452000896
:102ED00002440346934200D1704703F8011BF9E70F
:102EE0002DE9FF4755EC104B0D9FDDF830A0002D6C
:102EF0000E4691461946B8BF22462B4627F02007BA
:102F0000BBBF05F100431D4600232D23B8BF144667
:102F1000462F0B7004D0452F00D10136022100E06E
:102F2000032103AB019302AB00933246534645ECB9
:102F3000104B00F0DDFC472F804602D119F0010F45
:102F400026D0462F08EB060911D198F80030302B17
:102F50000AD10022002320462946FDF737FF18B981
:102F6000C6F10106CAF80060DAF800309944002280
:102F7000002320462946FDF729FF38B93022039B5C
:102F80004B4505D2591C03911A70F8E7CDF80C9007
:102F9000039B0E9AA3EB08034046136004B0BDE800
:102FA000F087F7B500290446BABF49422D232B23E9
:102FB000092904F8022B437020DD0DF107031F4699
:102FC0000A2691FBF6F506FB15113031092D03F8A1
:102FD000011C03F1FF32294609DC3031023B02F8C3
:102FE000011CBB42224604D3101A03B0F0BD1346A5
:102FF000E7E713F8012B04F8012BF2E7302319441B
:103000008370021DC170EFE72DE9F04F8DB00C46C3
:10301000DDF8588016461F46054601F021FA036880
:1030200004931846FDF722FE00230A93D8F80030D7
:103030000590073323F0070303F1080294F818A062
:10304000D4F800B0C8F80020D3E90023C4E9122363
:10305000D4E9128929F000430793CDF818804FF086
:10306000FF32A74BDDE90601FDF7E2FE70BB4FF032
:10307000FF32A34BDDE90601FDF7BCFE30BB0022A9
:10308000002340464946FDF7ABFE10B12D2384F8DE
:1030900043309C4A9C4BBAF1470F8CBF90469846F0
:1030A00003232BF00402236122604FF000090097F4
:1030B00033460BAA2146284600F0E6F9013040F0DD
:1030C0008D804FF0FF300DB0BDE8F08F42464B468B
:1030D00040464946FDF7ACFE10B18C4A8C4BDAE70E
:1030E00061684B1C4BF480620AA83ED106236360E2
:1030F0000023CDE9020309AB009349EC108B0DF1DD
:1031000023032260CDF804A061682846FFF7E8FE9B
:103110000AF0DF03472B804609D1099BD81C02DB4C
:103120006268934247DDAAF1020A5FFA8AFABAF1AD
:10313000650F099924D80139524604F150000991CC
:10314000FFF72FFF0A9A1318012A8146236102DC38
:103150002268D10701D5013323619DF82330002B6C
:10316000A5D02D2384F84330A1E7BAF1670F00F012
:103170007781BAF1470FBBD10029B9D10123B6E756
:10318000BAF1660F19D1002963680CDD216113B90A
:103190002268D20702D501330B442361099BA36542
:1031A0004FF00009D9E713B92268D00701D50233DF
:1031B000F3E70123F1E74FF0670ADDE909329342B3
:1031C00005DB22682361D107E8D50133E5E7002B51
:1031D000D4BFC3F1020301231344DEE723685A0579
:1031E00007D42369424631462846B84701302BD1DF
:1031F00067E7BAF1650F40F2DC8000220023D4E9D2
:103200001201FDF7E3FD002833D00123414A314686
:103210002846B84701303FF454AFDDE909239A420C
:1032200002DB2368D8070FD5DDE9042331462846A1
:10323000B84701303FF445AF4FF0000804F11A09D8
:103240000A9B013B434509DC23689B0700F103818E
:10325000E0680B9B9842B8BF184634E701234A4602
:1032600031462846B84701303FF42BAF08F101083A
:10327000E6E7099B002B2BDC0123264A3146284632
:10328000B84701303FF41DAF099B23B90A9B13B91E
:103290002368D907D8D5DDE9042331462846B84745
:1032A00001303FF40EAF4FF0000904F11A0A099BF8
:1032B0005B424B4501DC0A9B94E7012352463146B1
:1032C0002846B84701303FF4FCAE09F10109EEE7AA
:1032D0000A9AA36D9A42A8BF1A46002A914607DDB2
:1032E0001346314642462846B84701303FF4E9AE1E
:1032F00004F11A034FF0000B29EAE979069315E06F
:10330000FFFFEF7F5C500008585000086450000831
:1033100060500008685000080123069A314628468C
:10332000B84701303FF4CDAE0BF1010BD4F858A0F3
:10333000AAEB09035B45EFDCDDE909239A42D0449F
:1033400015DB2368DA0712D40A9B0999A3EB0A025A
:10335000A3EB010A9245A8BF9246BAF1000F0EDC1A
:103360004FF000082AEAEA7A04F11A0919E0DDE9C7
:10337000042331462846B8470130E5D1A1E653463B
:10338000424631462846B8470130E9D199E6012343
:103390004A4631462846B84701303FF492AE08F11C
:1033A0000108DDE909239B1AA3EB0A034345EEDC80
:1033B0004AE70A9A012A01DCDB073AD50123424693
:1033C00031462846B84701303FF47BAEDDE904239F
:1033D00031462846B847013008F101083FF471AE84
:1033E0000A9B002203F1FF3AD4E912010023FDF702
:1033F000EDFCC8B95346424631462846B84701302D
:103400000ED15EE60123524631462846B8470130C8
:103410003FF457AE08F101080A9B013B4345F1DC3C
:103420004B4604F15002DEE64FF0000804F11A0AA0
:10343000F2E70123DFE701234A4631462846B84731
:1034400001303FF43EAE08F10108E3680B9A9B1A85
:103450004345F0DCFCE64FF0000804F11909F4E7FD
:1034600000293FF48BAE0023CDE9020309AB0093A2
:1034700049EC108B2260CDF804A00DF123032846FF
:10348000FFF72EFD804648E62DE9F04791461F469E
:103490008A680B69DDF820809342B8BF1346C9F8EB
:1034A000003091F8432006460C4612B10133C9F8AA
:1034B00000302368990642BFD9F800300233C9F8BA
:1034C0000030256815F0060507D104F1190AE368F4
:1034D000D9F800209B1AAB4228DC94F843302268CC
:1034E000003318BF012392062DD404F1430239465C
:1034F0003046C047013020D02368E568D9F8002065
:1035000003F00603042B08BFAD1AA36822690CBFA1
:1035100025EAE57500259342C4BF9B1AED184FF0CC
:1035200000091A344D451AD1002008E00123524603
:1035300039463046C047013003D14FF0FF30BDE877
:10354000F0870135C3E7E1185A1C302081F84300A9
:10355000224494F8451082F843100233C5E7012352
:10356000224639463046C0470130E6D009F101090C
:10357000D8E700002DE9F04301F1430C0C46097E29
:1035800085B06E291746064698460C9A00F0B3801F
:1035900022D8632936D00AD8002900F0B9805829EA
:1035A00000F0838004F1420584F8421032E064297F
:1035B00001D06929F6D120681368050603F10401DA
:1035C0002AD51B681160002B03DA2D225B4284F898
:1035D00043206F480A2239E0732900F09D8008D803
:1035E0006F2920D07029DDD1236843F020032360A8
:1035F00003E0752917D07829D4D1782384F8453091
:10360000644855E01368191D1B68116004F14205F8
:1036100084F8423001238CE01B68116010F0400FE9
:1036200018BF1BB2CFE713682568181D1060280665
:1036300001D51B6802E06806FBD51B8854486F293A
:1036400014BF0A220822002184F843106568A5608F
:10365000002DC0F29580216821F004012160002B2B
:103660003DD1002D40F08E806546082A0BD123689D
:10367000DB0708D5236962689A42DEBF302305F86C
:10368000013C05F1FF35ACEB05032361CDF800806B
:103690003B4603AA21463046FFF7F6FE01304DD1E6
:1036A0004FF0FF3005B0BDE8F083394884F845108D
:1036B000136821681D1D1B6815600A060BD5CA0713
:1036C00044BF41F0200121601BB9226822F0200292
:1036D00022601022B7E74D0648BF9BB2EFE7654670
:1036E000B3FBF2F102FB1133C35C05F8013D0B465D
:1036F0000029F5D1B9E7136825686169181D1060C4
:1037000028061B6801D5196002E06A06FBD51980FE
:10371000002323616546B9E71368191D11601D6810
:10372000626800212846FDF7ABFA08B1401B6060D3
:1037300063682361002384F84330A7E723692A469E
:1037400039463046C0470130AAD023689B0713D4BE
:10375000E068039B9842B8BF1846A3E701234A4696
:1037600039463046C04701309AD00135E368039AA4
:103770009B1AAB42F2DCEBE7002504F11909F5E7EF
:10378000002BACD1037884F8423004F142056CE799
:103790006A5000087B5000080EB400B59CB01DAB09
:1037A000029006906FF00041094807910491094981
:1037B00053F8042B05910068019302A901F05CFA0B
:1037C000029B00221A701CB05DF804EB03B0704736
:1037D000140000200802FFFF2DE9F74F03690C6970
:1037E000A3428046C0F28280013C01F114074FEAF7
:1037F000840C00F1140657F8245056F8240006EB08
:103800000C03013507EB0C090193B0FBF5F595B3FB
:103810004FF0000A3846B646D34650F8042B93B210
:1038200005FB03A34FEA134A9BB2ABEB0303120C55
:10383000DEF800B005FB02A213FA8BF34FEA124A3E
:103840001FFA82FBDEF80020CBEB124202EB234290
:103850009BB243EA024381454FEA224B4EF8043BB8
:10386000DBD256F80C3033B9019B043B9E421A461A
:1038700030D3C8F81040404601F028F8002825DB76
:10388000013530464FF0000C57F8042BD0F800E01B
:1038900093B2ACEB0303120C13FA8EF3C2EB1E428D
:1038A00002EB23429BB243EA0243B9454FEA224C62
:1038B00040F8043BE8D256F8242006EB84032AB9EA
:1038C000043B9E421A460BD3C8F81040284603B06A
:1038D000BDE8F08F1268043B002ACAD1013CC5E75D
:1038E0001268043B002AEFD1013CEAE70020EEE732
:1038F0002DE9F04F57EC106B97B0456A06910446DE
:103900000B921293DDF88080CDE900673DB910205D
:1039100000F0B4FD6062C0E901550560C560636AEE
:10392000196851B15A684A60012393408B60204660
:1039300000F0EBFD636A00221A603B1EBBBF23F060
:103940000043019300230122ACBFC8F80030C8F83F
:103950000020AF4BDDF8048033EA080314D1129A3B
:1039600042F20F731360009B23B9C8F313000028C1
:1039700000F04285219BDFF8ACB2002B00F04485BB
:103980000BF1030300F03EBDDDE9006700220023D8
:1039900030463946FDF71AFA814668B1129A01237A
:1039A0001360219B002B00F024859A4B219A03F190
:1039B000FF3B136000F028BD14AA15A947EC106B5B
:1039C000204600F0FAFFC8F30A550490002D7CD081
:1039D000C7F3130343F07F5BB2464BF4401BA5F2E1
:1039E000FF35CDF84C9000228B4B50465946FCF7E2
:1039F000F3FB81A3D3E90023FCF7A6FD80A3D3E961
:103A00000023FCF7EBFB064628460F46FCF732FD89
:103A10007DA3D3E90023FCF797FD02460B46304611
:103A20003946FCF7DBFB06460F46FDF717FA002286
:103A30008246002330463946FDF7D2F948B1504658
:103A4000FCF718FD32463B46FDF7C0F908B90AF10C
:103A5000FF3ABAF1160F59D8704901EBCA01DDE9F6
:103A60000023D1E90001FDF7D9F9002850D00AF16F
:103A7000FF3A00230F93149B5D1BB5F1010849BF6A
:103A8000C5F10103002305934FF0000858BF0593CB
:103A9000BAF1000F3EDB0023D044CDF838A00793E5
:103AA000069B092B00F29080052BC4BF043B0693B4
:103AB000069BA3F10203CCBF00250125032B00F2D6
:103AC0008F80DFE803F07D7F3171DDE914531D4401
:103AD00005F23240202813DDC0F14000009B08FAB7
:103AE00000F805F2124023FA00F048EA0000FCF763
:103AF000B1FC01238246A1F1F87B013D139372E7EB
:103B0000009BC0F1200003FA00F0F0E70123B1E7C9
:103B10000F90B0E7059BA3EB0A030593CAF10003DE
:103B2000079300230E93BBE701230A930B9B002B03
:103B300059DD02939946666A00227260042202F1FE
:103B400014009842716853D9204600F0AAFC636AB9
:103B50003060B9F10E0FD3F800B000F2E680002D0E
:103B600000F0E3809DED007BBAF1000F8DED107B3E
:103B700074DD2A4A0AF00F0302EBC30393ED007BC6
:103B80004FEA2A16F0068DED087B65D5244BDDE95A
:103B90001001D3E90823FCF701FECDE9000106F08E
:103BA0000F0603251E4F4CE001230A930B9B534441
:103BB00003F1010902934B46012BB8BF0123BAE779
:103BC0000023B2E70023F0E70125002306930A95BE
:103BD0004FF0FF3302939946002212230B92AAE77B
:103BE00001230A93F4E70123029399461A46F5E765
:103BF000013171605200A2E761436F63A787D23F32
:103C0000B3C8608B288AC63FFB799F501344D33FCB
:103C10000000F07F695000080000F83FC85000081D
:103C2000A050000895500008F10708D5DDE908010B
:103C3000D7E90023FCF788FCCDE9080101357610AF
:103C40000837002EF0D1DDE90823DDE90001FCF79B
:103C5000A5FDCDE900011AE00225A3E700F0A08050
:103C6000CAF100069F4BA04F06F00F0203EBC20300
:103C7000D3E90023DDE91001FCF766FCCDE9000182
:103C8000361100230225002E7FD1002BE1D10F9B9E
:103C9000002B00F08780DDE900670022934B30465F
:103CA0003946FDF79DF800287CD0B9F1000F79D096
:103CB000029B002B35DD0AF1FF33089339460022C1
:103CC0008B4B3046FCF740FCCDE90001029F0135EB
:103CD0002846FCF7CFFBDDE90023FCF735FC00228A
:103CE000844BFCF77BFA0546A1F15076002F5DD19D
:103CF0000022814BDDE90001FCF76EFA2A463346CB
:103D0000CDE90001FDF78AF8002840F088822A46B4
:103D100006F10043DDE90001FDF762F8002840F0FC
:103D20007C82DDE91023CDE90023159B002BC0F236
:103D30005081BAF10E0F00F34C816A4B03EBCA03BA
:103D400093ED007B0B9B002B8DED027B80F2D880E6
:103D5000B9F1000F00F3D48040F05E820022664B80
:103D600051EC170BFCF7F0FBDDE90023FDF74CF8F5
:103D70004F464E46002840F0348231230BF10105B6
:103D80008BF800300AF1010A2FE2F20705D5D7E9D6
:103D90000023FCF7D9FB013501237610083772E7C1
:103DA000022574E7CDF820A04F4691E74D4B03EB79
:103DB000C70353E902010A9B002B47D002460B467A
:103DC00000204E49FCF7EAFC2A463346FCF704FA89
:103DD000CDE90C015D46DDE90001FDF73FF806463F
:103DE000FCF748FB02460B46DDE90001FCF7F4F95D
:103DF000303605F8016BDDE90C23CDE90001FCF755
:103E0000EFFF002863D1DDE9002300203749FCF7EC
:103E1000E3F9DDE90C23FCF7E3FF002840F0B7806D
:103E2000A5EB0B039F427FF77CAF0022304BDDE90F
:103E30000C01FCF789FB0022CDE90C012C4BDDE9DC
:103E40000001FCF781FBCDE90001C4E72A463346B7
:103E5000FCF77AFBCDE90C010BEB07055E46DDE9CB
:103E60000001FCF7FBFF0746FCF704FB3037024676
:103E70000B46DDE90001FCF7AFF906F8017BAE4225
:103E8000CDE900014FF0000226D11C4BDDE90C0109
:103E9000FCF7A4F902460B46DDE90001FCF7BEFF82
:103EA000002874D1DDE90C2300201449FCF794F9B3
:103EB00002460B46DDE90001FCF792FF00283FF4C3
:103EC00030AF15F8013C302B05F1FF3202D0DDF8A0
:103ED00020A04AE01546F4E7054BFCF735FBCDE999
:103EE0000001BCE7C8500008A05000080000F03FE7
:103EF0000000244000001C40000014400000E03F8F
:103F0000DDE900675D46DDE9022330463946FCF70E
:103F100045FCFCF7A3FF8046FCF7ACFADDE9022381
:103F2000FCF712FB02460B463046394608F13006D4
:103F3000FCF752F905F8016BA5EB0B06B1450246FB
:103F40000B4639D1FCF74AF9DDE9022306460F4654
:103F5000FCF764FFC8B9DDE9022330463946FCF7B7
:103F600035FF10B118F0010F0FD10499204600F071
:103F7000CCFA0023129A2B700AF101031360219BE3
:103F8000002B00F041821D603EE2CDF820A015F824
:103F9000012C392A05F1FF3308D19B450AD1089B32
:103FA0000133089330238BF800305B461A780132D6
:103FB0001A708CE71D46EAE700229B4BFCF7C4FA17
:103FC0000022002306460F46FCF700FF00289AD087
:103FD000CBE70A9A002A00F08B80069A012A6EDC51
:103FE000139A002A67D003F23343079F059D059A71
:103FF00001211A4420460592984400F026FB06460B
:10400000002D0CDDB8F1000F09DD4545059A2B4662
:10401000A8BF4346D21A0592ED1AA8EB0308079BE6
:10402000EBB10A9B002B67D08FB131463A46204650
:1040300000F0AAFB049A01460646204600F00EFB5B
:1040400004990890204600F060FA089B0493079BAF
:10405000DA1B04D00499204600F096FB049001215D
:10406000204600F0F2FA0E9B0746002B00F0D081AC
:104070001A460146204600F087FB069B012B0746A7
:1040800040DC009B002B39D1019BC3F31303002BB1
:1040900036D1019B23F000431B0D1B052BB1059B63
:1040A0000133059308F10108012307930E9B002BB0
:1040B0002AD1012030E0149BC3F1360395E7079B1A
:1040C00009F1FF37BB42BFBF079B0797FA1A0E9B48
:1040D000BBBF9B180E93DF1B0027B9F1000FB5BFC4
:1040E000059B059DA3EB09054B46B8BF00237EE762
:1040F000079F059D0A9E83E7079AABE70023D4E755
:10410000009BD2E7002307933B6907EB8303186901
:1041100000F04DFAC0F12000404410F01F0047D0DD
:10412000C0F12003042B3BDD059BC0F11C000344C0
:10413000059305448044059B002B05DD1A46049930
:10414000204600F06FFB0490B8F1000F05DD394602
:104150004246204600F066FB07460F9B53B33946A4
:10416000049800F0B3FB002824DA00230A22049903
:10417000204600F0E1F90A9B04900AF1FF3A002B77
:1041800000F04D81002331460A22204600F0D4F988
:10419000029B002B06464FDC069B022B4CDD11E0F8
:1041A000C9D0059A1C331A4405921D449844C2E7AD
:1041B0000346F6E7B9F1000F38DC069B022B35DD2C
:1041C000CDF80890029B63B939460522204600F0DD
:1041D000B3F901460746049800F078FB00283FF742
:1041E000CCAD0B9B5D466FEA030A4FF000093946E0
:1041F000204600F08AF9002E3FF4B7AEB9F1000F67
:1042000005D0B14503D04946204600F07EF931463D
:10421000204600F07AF9A8E600273E46E1E7DDF8FF
:1042200020A03E46A9E500BF000024400A9BCDF82F
:104230000890002B00F0FA80002D05DD31462A465B
:10424000204600F0EFFA0646079B002B4CD0716821
:10425000204600F026F9326902320546920006F146
:104260000C010C3000F012F901222946204600F022
:10427000D9FA009BCDF814B003F00103B1460793BF
:10428000064639460498FFF7A7FA4946054600F165
:104290003008049800F01AFB324600903946204658
:1042A00000F02EFBC368024603BB01460890049849
:1042B00000F00CFB089A034611462046089300F0D4
:1042C00024F9089BA3B9069A92B9079A82B9B8F162
:1042D000390F29D0009B002B01DD05F13108059B2A
:1042E0005D1C83F8008082E73046C2E70123E3E7E4
:1042F000009A002A04DB25D1069A1ABB079A0ABB4A
:10430000002BECDD01220499204600F08BFA39469F
:10431000049000F0DBFA002803DCE0D118F0010F74
:10432000DDD0B8F1390FD8D1059B059A5D1C392332
:10433000137015F8013C392B05F1FF324FD00133D2
:10434000137054E7059A002B02F1010506DDB8F160
:10435000390FE9D008F10108059BC2E7029A05F878
:10436000018CA5EB0B03934221D000230A22049970
:10437000204600F0E1F8B14504904FF000034FF003
:104380000A024946204605D100F0D6F88146064685
:10439000059576E700F0D0F83146814600230A22E1
:1043A000204600F0C9F80646F2E74FF00009012266
:1043B0000499204600F036FA3946049000F086FA57
:1043C0000028B6DC02D118F0010FB2D115F8013C7B
:1043D000302B05F1FF327FF40AAF1546F6E793451F
:1043E00005D131230AF1010A8BF80030FFE61546AA
:1043F0009FE7DFF864B007E0219BDFF860B01BB1F6
:104400000BF10803219A1360584617B0BDE8F08FEE
:10441000069B012B7FF735AE0E9B079349E6029B67
:10442000002B03DC069B022B3FF7CCAE5D463946E2
:104430000498FFF7D1F900F1300805F8018B029AD2
:10444000A5EB0B039A42B0DD00230A220499204613
:1044500000F072F80490EAE7685000088C500008F9
:10446000044B1B68186A044B002808BF1846F0303C
:10447000704700BF1400002078000020024B014666
:10448000186800F045BB00BF1400002010B5431EA3
:104490000A44914200D110BD11F8014B03F8014FBD
:1044A000F7E770B5456A04460E463DB91020FFF7A0
:1044B000E5FF6062C0E901550560C560656AEB68AB
:1044C00083B1636ADB6853F82600B8B9012101FAA9
:1044D00006F56A1D9200204600F0BEFA60B1C0E900
:1044E00001650EE021220421204600F0B5FA636A3E
:1044F000E860DB68002BE4D1002070BD026843F85F
:1045000026200023C0E90333F7E770B5446A064666
:104510000D463CB91020FFF7B1FF7062C0E90144BD
:104520000460C4603DB1736A6A68DB6853F82210A6
:10453000296043F8225070BD2DE9F0410D691F46F6
:1045400006460C4601F1140C0023DCF8000081B291
:1045500002FB01710F0C000C02FB007089B20133E9
:1045600001EB00419D424FEA10474CF8041BECDC84
:10457000D7B1A368AB4212DC616830460131FFF766
:1045800090FF2269023204F10C01804692000C3047
:10459000FFF77CFF21463046FFF7B7FF444604EBA8
:1045A000850301355F6125612046BDE8F081020C7D
:1045B00012040346B2B90304102013F07F4F04BF66
:1045C0001B02083013F0704F04BF1B01043013F0BE
:1045D000404F04BF9B000230002B06DB5B0003D57D
:1045E000013070470020E8E720207047036813F08F
:1045F000070201460BD0DA0723D4980749BF5B08AE
:104600009B0801200B605CBF0B600220704798B2D2
:10461000A8B91B0C102013F0FF0F04BF1B0A0830B1
:104620001A0704BF1B0904309A0704BF9B08023015
:10463000DA0702D45B0806D001300B6070471046E1
:10464000E9E7002070472020704710B50C46012193
:10465000FFF727FF01224461026110BD2DE9F74FEA
:1046600014460A6923699A42B8BF0B468846BCBF04
:10467000A0461C46D8F81070D4F81090D8F808302E
:10468000D8F8041007EB0906B342B8BF0131FFF7B1
:1046900008FF00F1140505EB860E2B46002273453A
:1046A00016D304F1140208F1140102EB890301EBA3
:1046B00087070093009B019293420CD8002E03DDE4
:1046C0005EF8043D002B5DD0066103B0BDE8F08FBD
:1046D00043F8042BE3E7B2F800B0BBF1000F23D09E
:1046E0008946AC464FF0000859F8044BDCF800A0AE
:1046F000A3B21FFA8AFA0BFB03A34FEA144ADCF8B1
:10470000004043444FEA14480BFB0A8404EB134473
:10471000E2469BB243EA04434F454FEA14484AF845
:10472000043B2BD8CCF80480019BB3F802A00432E0
:10473000BAF1000F20D02B688946A8464FF0000B35
:10474000B9F800C0B8F802400AFB0C445C44C44607
:104750009BB243EA04434CF8043B59F8043BB8F8D5
:1047600004B01B0C0AFB03B303EB14434F454FEAA1
:10477000134B05D8C8F8043004359BE7D446B3E79B
:10478000E046DDE7013E99E72DE9F843154612F0D2
:10479000030206460F4607D0013A214C002354F885
:1047A0002220FFF7C9FE0746AD1035D0746A3CB928
:1047B0001020FFF763FE7062C0E901440460C4602A
:1047C000D6F82480D8F808404CB940F27121304620
:1047D000FFF73BFF0023C8F80800044603604FF0D2
:1047E0000008EB070AD5394622463046FFF736FF68
:1047F000394681463046FFF788FE4F466D100BD094
:10480000206838B9224621463046FFF727FF20604E
:10481000C0F800800446E4E73846BDE8F88300BFEE
:10482000905100082DE9F0470C464FEA621A2369BF
:1048300049680AEB0309A3680746164609F1010512
:10484000AB4232DB3846FFF72CFE0023804600F1F6
:1048500014011A4653452BDB20692AEAEA7A04F14F
:10486000140316F01F0201EB8A0103EB800C25D024
:10487000C2F1200E00201E688A46964030434AF856
:10488000040B53F8040B9C4520FA0EF014D8486032
:1048900008B109F10205013D3846C8F8105021461B
:1048A000FFF733FE4046BDE8F08701315B00C7E704
:1048B00041F823200133CDE75146DCE7043953F8B2
:1048C000042B41F8042F9C45F9D8E4E703690A69F1
:1048D0009B1A30B50CD19200143014318418114455
:1048E00054F8045D51F8042D954203D005D30123FB
:1048F000184630BDA042F3D3FAE74FF0FF33F7E795
:104900002DE9F0470D460746114628461446FFF7A5
:10491000DDFF061E08D131463846FFF7C2FD0123F0
:10492000C0E90436BDE8F087A4BF23462C463846CC
:104930006168A6BF1D4600260126FFF7B2FD2B6960
:10494000C660266905F1140904F1140202EB86071A
:1049500009EB830800F114054FF0000E52F804AB88
:1049600059F8044B1EFA8AF1A3B2C91A230CC3EBFF
:104970001A4303EB214389B24FEA234EC84541EA6B
:104980000343944645F8043BE8D8BC4504D355F8A6
:10499000043D83B10661C5E75CF8041B1EFA81F390
:1049A0001A1402EB11429BB243EA02434FEA224E31
:1049B00045F8043BE9E7013EE9E72DE9F7430E46F8
:1049C000012159EC108B1546FFF76BFDC9F30A5412
:1049D0000746C9F3130334BB0193B8F1000327D092
:1049E00002A840F8083DFFF701FE0099F0B1019AD6
:1049F000C0F1200302FA03F30B43C2407B61019232
:104A0000019BBB61002B14BF022101213961C4B19C
:104A1000A4F2334404443460C0F1350028603846C1
:104A200003B0BDE8F08343F48013D5E77961E7E78D
:104A300001A8FFF7DBFD019B7B610121396120307B
:104A4000E5E707EB8103A0F2324030601869FFF719
:104A5000AEFDC0EB4110E1E738B502FB01F42146A1
:104A600000F056F8054618B122460021FEF730FA4C
:104A7000284638BD38B50546002945D051F8043CD4
:104A80000C1F002BB8BFE41800F029FA1F4A136866
:104A9000104633B9636014602846BDE8384000F022
:104AA0001FBAA3420CD921686218934204BF1A6846
:104AB0005B68636004BF521822600460ECE7134631
:104AC0005A680AB1A242FAD919685818A0420BD103
:104AD00020680144581882421960DDD1106852687C
:104AE0005A6001441960D7E702D90C232B60D3E741
:104AF000206821188A4204BF11685268626004BFAE
:104B0000091821605C60C7E738BD00BF20020020A3
:104B100070B5CD1C25F0030508350C2D38BF0C25CC
:104B2000002D064601DBA94203D90C233360002087
:104B300070BD00F0D4F9214A1468214691B9204C87
:104B400023681BB9304600F08FF9206029463046B3
:104B500000F08AF9431C24D10C233360304600F066
:104B6000BFF9E4E70B685B1B18D40B2B0FD90B6064
:104B7000CD50CC18304600F0B3F904F10B00231DE2
:104B800020F00700C31AD3D05A42E250D0E78C423B
:104B90004B6816BF636013600C46EBE70C46496830
:104BA000CCE7C41C24F00304A04205D0211A3046EF
:104BB00000F05AF90130CFD02560DBE72002002059
:104BC000240200202DE9F0478E689E4282460C4662
:104BD0009046994637D88A8912F4906F31D025686B
:104BE00009696F1A6569022305EB450595FBF3F525
:104BF00009F101033B449D4238BF1D46530530D5A2
:104C00002946FFF785FF064650B90C23CAF8003045
:104C1000A38943F04003A3814FF0FF30BDE8F08744
:104C20003A462169FFF732FCA38923F4906343F0ED
:104C30008003A381266165613E44ED1B2660A5606B
:104C40004E464E4500D94E4632464146206800F059
:104C50002DF9A3689B1BA36023681E4426600020D7
:104C6000DCE72A4600F03DF906460028E2D121693A
:104C70005046FFF7FFFEC8E72DE9F04F1D468B8930
:104C80001F069DB080460C4616460FD50B696BB9C2
:104C90004021FFF73DFF2060206128B90C23C8F8B0
:104CA00000304FF0FF30C8E04023636100230993D8
:104CB00020238DF8293030238DF82A3003954FF0CA
:104CC000010B37463D4615F8013B0BB1252B3ED174
:104CD000B7EB060A0BD05346324621464046FFF753
:104CE00071FF013000F0A480099B534409933B7885
:104CF000002B00F09D8000234FF0FF32CDE905230B
:104D0000049307938DF853301A932F46052217F812
:104D1000011B5048FBF7B4FF049BD0B9D90644BF30
:104D200020228DF853201A0744BF2B228DF85320E0
:104D30002A782A2A15D0079A2F4600200A253946B4
:104D400011F8013B303B092B4DD9B8B10FE02F468C
:104D5000B8E7404A801A0BFA00F0184304903D4629
:104D6000D3E7039A111D12680391002A01DB079211
:104D700004E0524243F00203079204933B782E2B47
:104D80000CD17B782A2B33D1039B1A1D1B6803920D
:104D9000002BB8BF4FF0FF33023705932E4D397803
:104DA00003222846FBF76CFF38B14023401B03FA6F
:104DB00000F0049B034301370493397827488DF8AA
:104DC000281006227E1CFBF75BFF002838D0244BFE
:104DD00013BB039B073323F0070308330393099B9B
:104DE0004B4409936DE705FB023201200F46A6E70D
:104DF00000230137059319460A25384610F8012B80
:104E0000303A092A03D9002BC8D00591C6E705FB23
:104E1000012101230746F0E703AB00932246114B23
:104E200004A94046FEF7F0F8B0F1FF3F8146D6D125
:104E3000A3895B063FF535AF09981DB0BDE8F08F3B
:104E400003AB00932246074B04A94046FEF792FBB2
:104E5000EAE700BF9C510008A2510008A6510008D3
:104E600009300008C54B000838B5064C002305463C
:104E700008462360FDF796FF431C02D1236803B167
:104E80002B6038BD9003002082B001B901A942B166
:104E90004BB113780B601278101C18BF012002B0C0
:104EA00070471046FBE76FF00100F8E7884210B545
:104EB00001EB020307D8421E99420AD011F8014BB8
:104EC00002F8014FF8E78342F5D98118D21AD3428C
:104ED00000D110BD13F8014D01F8014DF7E77047FF
:104EE0007047F8B5074614460E4621B91146BDE88D
:104EF000F840FFF70DBE22B9FFF7BCFD2546284656
:104F0000F8BD00F021F8A0420FD221463846FFF745
:104F1000FFFD05460028F2D031462246FFF7B6FADB
:104F200031463846FFF7A6FDE9E73546E7E749B1E0
:104F3000FF2A85BF8A2303600A704FF0FF3098BFB5
:104F4000012070470846704751F8043C181F002B99
:104F5000BCBF0B58C0187047F8B500BFF8BC08BC00
:104F60009E467047F8B500BFF8BC08BC9E46704727
:104F7000A0860100400D0300801A060000350C00D9
:104F800040420F0080841E0000093D0000127A009C
:104F90000024F40000366E010048E801006CDC02D9
:104FA00000000000000000000102030406070809D9
:104FB0000000000001020304535953434C4B3A20B4
:104FC000256C640D0A00000048434C4B3A20256CC8
:104FD000640D0A0050434C4B313A20256C640D0A95
:104FE0000000000050434C4B323A20256C640D0AFF
:104FF0000A000000536F6D657468696E67207765FD
:105000006E742077726F6E672C20737475636B20DB
:10501000696E206572726F722020210054696D657F
:105020007220696E697420646F6E65200A0000004A
:105030005573657220667265713A20256C660D0A9B
:105040000000000048656C6C6F202C207265616464
:10505000792021200D0A0000494E4600696E660045
:105060004E414E006E616E003000303132333435C7
:1050700036373839414243444546003031323334C3
:10508000353637383961626364656600496E666932
:105090006E697479004E614E00000000000000004F
:1050A0000080E03779C34143176E05B5B5B8934624
:1050B000F5F93FE9034F384D321D30F94877825AF0
:1050C0003CBF737FDD4F1575000000000000F03F0E
:1050D00000000000000024400000000000005940D3
:1050E0000000000000408F40000000000088C34026
:1050F00000000000006AF8400000000080842E419B
:1051000000000000D01263410000000084D79741E6
:105110000000000065CDCD41000000205FA00242EC
:10512000000000E876483742000000A2941A6D4261
:10513000000040E59C30A2420000901EC4BCD64254
:1051400000003426F56B0C430080E03779C34143FF
:1051500000A0D8855734764300C84E676DC1AB4375
:10516000003D9160E458E143408CB5781DAF154493
:1051700050EFE2D6E41A4B4492D54D06CFF080446E
:10518000F64AE1C7022DB544B49DD9794378EA4483
:1051900005000000190000007D000000232D302BC9
:1051A0002000686C4C006566674546470043005028
:1051B0004F534958002E000020202020202020207E
:1051C00020282828282820202020202020202020B7
:1051D00020202020202020208810101010101010D7
:1051E000101010101010101004040404040404041F
:1051F00004041010101010101041414141414101B0
:10520000010101010101010101010101010101018E
:10521000010101101010101010424242424242029D
:10522000020202020202020202020202020202025E
:105230000202021010101020000000000000000008
:10524000000000000000000000000000000000005E
:10525000000000000000000000000000000000004E
:10526000000000000000000000000000000000003E
:10527000000000000000000000000000000000002E
:10528000000000000000000000000000000000001E
:10529000000000000000000000000000000000000E
:1052A00000000000000000000000000000000000FE
:0852B0000000000000000000F6
:0852B800E4B6FF7F01000000D5
:0852C000B50100080000000028
:0852C800910100080000000044
:1052D0000100000010000000445000080100000020
:1052E00000093D0018000020000000000000000040
:1052F00000000000000000000000000000000000AE
:10530000000000000000000000000000000000009D
:10531000000000000000000000000000000000008D
:10532000000000000000000000000000000000007D
:10533000000000000000000000000000000000006D
:10534000000000000000000043000000000000001A
:10535000000000000000000000000000000000004D
:1053600000000000000000004300000000000000FA
:10537000000000000000000000000000000000002D
:1053800000000000000000004300000000000000DA
:10539000000000000000000000000000000000000D
:1053A00000000000000000004300000000000000BA
:1053B00000000000000000000000000000000000ED
:1053C000000000000000000043000000000000009A
:1053D00000000000000000000000000000000000CD
:1053E000000000000000000043000000000000007A
:1053F00000000000000000000000000000000000AD
:105400000000000000000000430000000000000059
:10541000000000000000000000000000000000008C
:1054200000000000000000002F4F0008894E000817
:1054300000000000B7510008B5510008A151000854
:10544000A1510008A1510008A1510008A151000874
:10545000A1510008A1510008A1510008A151000864
:10546000FFFFFFFFFFFFFFFFFFFFFFFFFFFF00004A
:1054700001004153434949000000000000000000C2
:10548000000000000000000000000000000000001C
:1054900000004153434949000000000000000000A3
:1054A00000000000000000000000000000000000FC
:0854B0000000000000000000F4
:0400000508002E2998
:00000001FF
