:020000040800F2
:100000000080012069210008B9210008B9210008F9
:10001000B9210008B9210008B9210008000000003A
:10002000000000000000000000000000B9210008EE
:10003000B921000800000000B9210008A11C000837
:10004000B9210008B9210008B9210008B921000828
:10005000B9210008B9210008B9210008B921000818
:10006000B9210008B9210008B9210008B921000808
:10007000B9210008B9210008B9210008B9210008F8
:10008000B9210008B9210008B9210008B9210008E8
:10009000B9210008B9210008B9210008B9210008D8
:1000A000B9210008B9210008B9210008B9210008C8
:1000B000B9210008B9210008B9210008B9210008B8
:1000C000B9210008B9210008B9210008B9210008A8
:1000D000B9210008B9210008B9210008B921000898
:1000E000B9210008B9210008B9210008B921000888
:1000F000B9210008B9210008B9210008B921000878
:10010000B9210008B9210008B9210008B921000867
:10011000B9210008B9210008AD1C0008B921000868
:10012000B9210008B9210008B9210008B921000847
:10013000B9210008B9210008B9210008B921000837
:10014000B9210008B9210008B9210008B921000827
:10015000B9210008B9210008B9210008B921000817
:10016000B9210008B9210008B9210008B921000807
:10017000B9210008B9210008B921000800000000D9
:08018000B9210008B9210008B3
:1001900010B5054C237833B9044B13B10448AFF3C1
:1001A00000800123237010BD90000020000000009B
:1001B0002C2A000808B5034B1BB103490348AFF3D1
:1001C000008008BD00000000940000202C2A0008D8
:1001D00053B94AB9002908BF00281CBF4FF0FF31AE
:1001E0004FF0FF3000F072B9ADF1080C6DE904CEAC
:1001F00000F006F8DDF804E0DDE9022304B0704702
:100200002DE9F047089E04468846002B4BD18A42D0
:10021000154667D9B2FA82F24AB1C2F1200701FA53
:1002200002F320FA07F7954047EA030894404FEAA3
:10023000154E230CB8FBFEF71FFA85FC0EFB178842
:1002400043EA084307FB0CF1994209D9EB1807F17F
:10025000FF3080F01B81994240F21881023F2B440D
:100260005B1AA4B2B3FBFEF00EFB103344EA034466
:1002700000FB0CFCA44509D92C1900F1FF3380F0D8
:100280000781A44540F2048102382C4440EA07402B
:10029000A4EB0C0400271EB1D4400023C6E90043A0
:1002A0003946BDE8F0878B4209D9002E00F0EB807B
:1002B0000027C6E9000138463946BDE8F087B3FAA1
:1002C00083F7002F47D18B4202D3824200F2FA809B
:1002D000841A61EB030301209846002EE0D0C6E9A2
:1002E0000048DDE702B9FFDEB2FA82F2002A40F0F0
:1002F0008F80491B4FEA154E1FFA85F80127B1FB85
:10030000FEFC230C0EFB1C1143EA014308FB0CF11D
:10031000994207D9EB180CF1FF3002D2994200F252
:10032000CD808446591AA3B2B1FBFEF00EFB101427
:1003300043EA044408FB00F8A04507D92C1900F152
:10034000FF3302D2A04500F2B6801846A4EB0804A1
:1003500040EA0C409FE7C7F1200CBB4022FA0CFE9C
:100360004EEA030E01FA07F420FA0CF521FA0CF319
:100370004FEA1E482543B3FBF8F92C0C08FB193350
:100380001FFA8EFA44EA034309FB0AF49C4202FA7C
:1003900007F200FA07F10BD91EEB030309F1FF3056
:1003A00080F087809C4240F28480A9F10209734466
:1003B0001B1BADB2B3FBF8F008FB103345EA034456
:1003C00000FB0AFAA24508D91EEB040400F1FF3332
:1003D0006BD2A24569D90238744440EA0940A0FBB7
:1003E0000289A4EB0A044C45C2464B4654D351D073
:1003F000002E69D0B1EB0A0564EB030404FA0CFC8F
:10040000FD40FC404CEA0505C6E90054002747E7DB
:10041000C2F1200320FA03F7954001FA02F021FA15
:1004200003F34FEA154E3843010CB3FBFEF71FFAF6
:1004300085F80EFB173341EA034107FB08F38B42B3
:1004400004FA02F407D9691807F1FF3C2FD28B4256
:100450002DD9023F2944CB1A81B2B3FBFEF00EFB2B
:10046000103341EA034100FB08F38B4207D96918B6
:1004700000F1FF3C17D28B4215D902382944C91A22
:1004800040EA07473BE73746304609E70746E7E6D5
:100490001846FBE64145ABD2B8EB020A69EB0E0207
:1004A00001381346A4E76046E9E7184695E7674632
:1004B000D1E781467CE702382C4447E7ACF1020CD7
:1004C0002B442FE7384608E73746E9E6704700BF78
:1004D000034613F8012B002AFBD1181A0138704784
:1004E00001F0FF01102A2BDB10F0070F08D010F8E5
:1004F000013B013A8B422DD010F0070F42B3F6D1E9
:10050000F0B441EA012141EA014122F007047FF001
:1005100000070023F0E80256083C85EA010586EA58
:10052000010685FA47F5A3FA87F586FA47F6A5FA94
:1005300087F68EB9EED1F0BC01F0FF0102F00702A0
:1005400032B110F8013B013A83EA010313B1F8D14B
:100550000020704701387047002D06BF354603382C
:10056000073815F0010F07D1013015F4807F02BF65
:10057000013015F4C03F0130F0BC0138704700BFB6
:1005800070470000104B1B680BB90120704710B575
:1005900004464FF47A70B0FBF3F30C4A1068B0FBDA
:1005A000F3F000F0A5F868B90F2C01D901200AE09A
:1005B000002221464FF0FF3000F058F8024B5C60FB
:1005C000002000E0012010BD0000002024000020D9
:1005D00010B5094A136843F480731360032000F0D8
:1005E00033F80020FFF7CEFF10B10124204610BDE4
:1005F0000446FFF7C5FFF9E700200240034A1368ED
:10060000034909680B441360704700BFC000002015
:1006100000000020014B1868704700BFC000002098
:1006200038B50446FFF7F6FF0546B4F1FF3F02D0A8
:10063000044B1B681C44FFF7EDFF401BA042FAD39C
:1006400038BD00BF00000020074AD36823F4E063F0
:100650001B041B0C000200F4E060184340F0BF6074
:1006600040F40030D060704700ED00E030B4174B2C
:10067000DB68C3F30223C3F10704042C28BF04245E
:100680001D1D062D18D9033B4FF0FF3505FA04F464
:1006900021EA0401994005FA03F322EA030319430E
:1006A00000280BDB0901C9B200F1604000F5614090
:1006B00080F8001330BC70470023E5E700F00F001E
:1006C0000901C9B2024B1954F4E700BF00ED00E084
:1006D00014ED00E0002807DB00F01F0240090123B1
:1006E0009340024A42F82030704700BF00E100E02A
:1006F0000138B0F1807F0AD2064B5860064AF021DB
:1007000082F823100020986007221A6070470120A9
:10071000704700BF10E000E000ED00E0042805D0C5
:10072000054A136823F0040313607047024A1368F4
:1007300043F004031360704710E000E0704708B511
:10074000FFF7FCFF08BD0000F0B583B000233FE0D9
:10075000C66A26EA0406C5F3C0049C403443C4625A
:100760005FE0062400E00024B4403C430235644EC0
:1007700046F82540634C2568D44304EA05064F68D3
:1007800017F4803F01D042EA05065E4D2E606D6889
:1007900004EA05064F6817F4003F01D042EA050657
:1007A000584D6E60AD6804EA05064F6817F4801F67
:1007B00001D042EA0506534DAE60ED682C404E680C
:1007C00016F4001F01D042EA05044E4AD4600133FA
:1007D0000A6832FA03F400F0918001249C40224020
:1007E000F5D04D686E1E012E03D9112D01D0122DAA
:1007F00012D186685F000325BD4026EA0506CD6854
:10080000BD4035438560466826EA04064D68C5F359
:1008100000159D40354345604D6805F00306032EE5
:1008200096D0C5685F000324BC40E44325408E6831
:10083000BE402E43C6604D68022D01D0122D13D14B
:10084000DE08083650F826E003F007054FEA850C6D
:100850000F2505FA0CF52EEA050E0D6905FA0CF5C3
:1008600045EA0E0540F8265005682C404D6805F015
:100870000305BD402C4304604C6814F0805FA6D093
:10088000214C256E45F001052566246E04F0010417
:100890000194019C9D08AE1C194C54F8267003F07D
:1008A0000304A6000F24B44027EA0407B0F1904FD8
:1008B0003FF459AF154CA04216D004F58064A04215
:1008C00014D004F58064A04212D004F58064A042E4
:1008D00010D004F58064A0420ED004F58064A042DC
:1008E0003FF43FAF07243FE701243DE702243BE705
:1008F000032439E7042437E7052435E703B0F0BDC6
:1009000000000140000401400010024000040048C3
:100910000AB9816270478161704743690B4201D116
:100920008161704781627047024A136943F0020394
:100930001361704700ED00E0024B186800F4C060DE
:10094000704700BF0070004030B583B00546204BB3
:100950009B6D13F0805F0BD0FFF7EEFFB0F5007FCB
:1009600017D0802D1FD82DD0702D2DD000211BE049
:10097000174CA36D43F08053A365A36D03F0805320
:100980000193019BFFF7D8FFA36D23F08053A3656C
:10099000E4E7802D03D9A02D03D9022104E0002132
:1009A00002E0012100E003210A4A136823F0070353
:1009B0000B431360136803F007038B4206D001203A
:1009C00003B030BD0221EFE70121EDE70020F7E79A
:1009D0000010024000200240284A9368D26802F0CA
:1009E000030213F00C030AD00C2B06D0042B1FD0EB
:1009F000082B20D00020024610E0012AF6D11F4A21
:100A0000126812F0080F0CD11C4AD2F89420C2F3DD
:100A100003221B4951F8222043B100200C2B0DD09A
:100A20007047164A1268C2F30312F2E71046F5E760
:100A300014480022F2E714480022EFE70F4BDB686E
:100A400003F00303022B15D0032B15D00B4BD868F2
:100A5000C0F302100130D968C1F3062102FB01F294
:100A6000B2FBF0F2D868C0F3416001304000B2FB45
:100A7000F0F0D5E7034AE9E7034AE7E70010024050
:100A8000482A00080024F40000127A00002800F030
:100A90000083F0B583B00446AF4B9D6805F00C05AC
:100AA000DE6806F00306036813F0100F5BD0E5B1B3
:100AB0000C2D18D0A369002B00F0BC80A64A136847
:100AC00043F001031360FFF7A5FD0746A24B1B6827
:100AD00013F0020F40F09B80FFF79CFDC01B022823
:100AE000F4D90323E1E2012EE4D19B4B1B6813F000
:100AF000020F03D0A369002B00F0CE82206A964B30
:100B00001B6813F0080F5CD0934B1B6803F0F003D5
:100B100098425DD8904B1A6842F008021A601A6831
:100B200022F0F002216A0A431A605A6822F47F42D6
:100B3000E16942EA01225A60002D61D0FFF74CFFC3
:100B4000854B9B68C3F30313844AD35C03F01F03F4
:100B5000D840834B1860834B1868FFF713FD03469A
:100B6000002840F0A282236813F0010F00F081807A
:100B7000082D75D00C2D71D06368B3F5803F00F05F
:100B80009780B3F5A02F00F09980734B1A6822F478
:100B900080321A601A6822F480221A606368002B7F
:100BA00000F09980FFF736FD07466B4B1B6813F486
:100BB000003F5ED1FFF72EFDC01B6428F5D903234B
:100BC00073E2654BD3F894301B0903F0F0039FE701
:100BD000FFF7BAFE002840F061825F4B1A6842F0CE
:100BE00008021A601A6822F0F002216A0A431A60A9
:100BF0005A6822F47F42E16942EA01225A609DE785
:100C0000206AFFF7A1FE002898D001234DE2524B45
:100C10001A6842F008021A601A6822F0F002216A8B
:100C20000A431A605A6822F47F42E16942EA0122CB
:100C30005A6098E7484A136823F001031360FFF7EE
:100C4000E9FC0746444B1B6813F0020F8BD0FFF7FB
:100C5000E1FCC01B0228F5D9032326E2032E8BD129
:100C60003D4B1B6813F4003F03D06368002B00F07A
:100C70001782236813F0020F4FD0042D3CD00C2DA7
:100C800038D0E368002B78D0334A136843F480737C
:100C90001360FFF7BFFC06462F4B1B6813F4806FF1
:100CA00062D1FFF7B7FC801B0228F5D90323FCE1D2
:100CB000294A136843F4803313606FE703F18043DC
:100CC000A3F53C331A6842F480221A601A6842F491
:100CD00080321A6062E7FFF79DFC07461E4B1B68D7
:100CE00013F4003FC5D0FFF795FCC01B6428F5D96D
:100CF0000323DAE1022EC4D1174B1B6813F4806F73
:100D000003D0E368002B00F0CD81134A536823F031
:100D1000F853216943EA01635360236813F0080F15
:100D200056D06369002B3CD00B4AD2F8943043F084
:100D30000103C2F89430FFF76DFC0646064BD3F86A
:100D4000943013F0020F43D1FFF764FC801B02289C
:100D5000F4D90323A9E100BF00100240782A00085B
:100D60002400002004000020B84A536823F0F85300
:100D7000216943EA01635360CFE7B44A136823F45F
:100D800080731360FFF746FC0646B04B1B6813F4F4
:100D9000806FC2D0FFF73EFC801B0228F5D90323E9
:100DA00083E1AA4AD2F8943023F00103C2F89430C8
:100DB000FFF730FC0646A54BD3F8943013F0020F32
:100DC00006D0FFF727FC801B0228F4D903236CE12F
:100DD000236813F0040F7AD09C4B9B6D13F0805F57
:100DE0000BD19A4B9A6D42F080529A659B6D03F03D
:100DF00080530193019B012600E00026944B1B6861
:100E000013F4807F26D0A368012B37D0052B3DD06B
:100E10008E4BD3F8902022F00102C3F89020D3F833
:100E2000902022F00402C3F89020A368002B3BD04E
:100E3000FFF7F0FB0746854BD3F8903013F0020F15
:100E400044D1FFF7E7FBC01B41F288339842F2D947
:100E500003232AE17E4A136843F480731360FFF78B
:100E6000D9FB07467A4B1B6813F4807FCBD1FFF781
:100E7000D1FBC01B0228F5D9032316E1734AD2F82F
:100E8000903043F00103C2F89030CEE76F4BD3F8B7
:100E9000902042F00402C3F89020D3F8902042F052
:100EA0000102C3F89020C0E7FFF7B4FB0746674B89
:100EB000D3F8903013F0020F08D0FFF7ABFBC01B44
:100EC00041F288339842F2D90323EEE06EBBA36A65
:100ED000002B00F0E980022B2DD00C2D00F0EE80CD
:100EE0005A4B1A6822F080721A601B6813F0205F58
:100EF00004D1564AD36823F00303D360534AD3681E
:100F000023F0887323F48033D360FFF783FB044618
:100F10004E4B1B6813F0007F00F0B980FFF77AFB9F
:100F2000001B0228F4D90323BFE0484A936D23F045
:100F300080539365CBE7454BDB6803F00301E26A1E
:100F400091420FD00C2D00F0B380404B1B6813F082
:100F5000806F40F0AF803D4B1B6813F0805F2DD059
:100F60000123A2E003F07002216B0139B2EB011FF3
:100F7000E8D103F4FE42616BB2EB012FE2D103F43E
:100F80000031A26B073A18BF01229142DAD103F473
:100F9000C001E26B5208013AB1EB425FD2D103F0DB
:100FA000C063226C5208013AB3EB426FCAD1274B9F
:100FB0001B6813F0007F51D0002376E0234A1368AA
:100FC00023F080731360FFF725FB05461F4B1B685A
:100FD00013F0007F06D0FFF71DFB401B0228F5D958
:100FE000032362E0194AD3681A491940E36A206B67
:100FF000013843EA0013606B43EA0023E06B4008CA
:10100000013843EA4053206C4008013843EA40630A
:10101000A06B000943EA40430B43D360136843F0DD
:1010200080731360D36843F08073D360FFF7F2FAE4
:101030000446064B1B6813F0007F0DD1FFF7EAFA58
:10104000001B0228F5D903232FE000BF0010024047
:10105000007000408C809DF9002326E0184B1A6830
:1010600042F080721A60DA6842F08072DA60FFF74C
:10107000D1FA044604E0FFF7CDFA001B02281BD882
:101080000F4B1B6813F0007FF5D000230DE0002309
:101090000BE0012318467047012306E0012304E01A
:1010A000012302E0012300E00023184603B0F0BD55
:1010B0000123FAE70123F8E70323F6E70123F4E726
:1010C00000100240002800F09B8070B504464E4B93
:1010D0001B6803F007038B420CD24B4A136823F0C2
:1010E00007030B431360136803F007038B4201D01F
:1010F000012070BD0D46236813F0010F39D06368DD
:10110000032B09D0022B26D063BB404A126812F091
:10111000020F06D10120ECE73C4A126812F0007F72
:1011200070D03A498A6822F0030213438B60FFF7BC
:1011300071FA0646354B9B6803F00C036268B3EB0B
:10114000820F16D0FFF766FA801B41F2883398426F
:10115000F0D90320CDE72D4A126812F4003FE0D108
:101160000120C6E7294A126812F4806FD9D1012004
:10117000BFE7236813F0020F06D0244A936823F0D8
:10118000F003A1680B4393601F4B1B6803F0070338
:10119000AB420CD91C4A136823F007032B4313609E
:1011A000136803F00703AB4201D00120A1E72368D5
:1011B00013F0040F06D0154A936823F4E063E16846
:1011C0000B439360236813F0080F07D00F4A93680E
:1011D00023F46053216943EAC1039360FFF7FCFBEA
:1011E0000A4B9B68C3F30313094AD35C03F01F0344
:1011F000D840084B1860084B1868FFF7C3F978E728
:1012000001207047012074E70020024000100240D6
:10121000782A00082400002004000020014B1868F0
:10122000704700BF2400002008B5FFF7F7FF054B0B
:101230009B68C3F30223044AD35C03F01F03D84026
:1012400008BD00BF00100240882A000808B5FFF75B
:10125000E5FF054B9B68C3F3C223044AD35C03F04C
:101260001F03D84008BD00BF00100240882A0008B4
:10127000022380F83D3002689168084B0B40062B32
:1012800006D0B3F5803F03D0136843F00103136029
:10129000012380F83D300020704700BF07000100A7
:1012A0000268D36843F00103D36002689168064B7B
:1012B0000B40062B06D0B3F5803F03D0136843F0F4
:1012C000010313600020704707000100704770475A
:1012D0007047704710B5044603681A6912F0020F90
:1012E00011D0DA6812F0020F0DD06FF002021A610D
:1012F0000123037703689B6913F0030F79D0FFF78D
:10130000E6FF0023237723681A6912F0040F12D036
:10131000DA6812F0040F0ED06FF004021A61022393
:10132000237723689B6913F4407F68D02046FFF73A
:10133000CEFF0023237723681A6912F0080F12D01A
:10134000DA6812F0080F0ED06FF008021A61042359
:1013500023772368DB6913F0030F57D02046FFF78C
:10136000B6FF0023237723681A6912F0100F12D0FA
:10137000DA6812F0100F0ED06FF010021A61082315
:1013800023772368DB6913F4407F46D02046FFF7BC
:101390009EFF0023237723681A6912F0010F03D000
:1013A000DA6812F0010F3FD123681A6912F0800F3A
:1013B00003D0DA6812F0800F3DD123681A6912F465
:1013C000807F03D0DA6812F0800F3BD123681A695E
:1013D00012F0400F03D0DA6812F0400F39D12368C1
:1013E0001A6912F0200F03D0DA6812F0200F37D1FB
:1013F00010BDFFF76BFF2046FFF76AFF81E720462D
:10140000FFF764FF2046FFF763FF92E72046FFF7F0
:101410005DFF2046FFF75CFFA3E72046FFF756FF7E
:101420002046FFF755FFB4E76FF001021A6120462E
:1014300000F012FDB8E76FF080021A61204600F05C
:1014400095F8BAE76FF480721A61204600F08FF8C1
:10145000BCE76FF040021A612046FFF73AFFBEE793
:101460006FF020021A61204600F07FF8C0E700000C
:101470000368304A904212D0B0F1804F0FD0A2F5ED
:10148000943290420BD002F58062904207D002F570
:101490008062904203D002F59432904203D123F04F
:1014A00070034A681343234A90421ED0B0F1804F24
:1014B0001BD0A2F59432904217D002F58062904280
:1014C00013D002F5806290420FD002F59432904220
:1014D0000BD002F54062904207D002F58062904244
:1014E00003D002F58062904203D123F44073CA68AE
:1014F000134323F080034A69134303608B68C3627C
:101500000B6883620B4B98420FD003F5006398423F
:101510000BD003F54063984207D003F580639842EF
:1015200003D003F58063984201D10B690363012363
:1015300043617047002C0140A8B110B5044690F8F3
:101540003D305BB1022384F83D30211D2068FFF758
:101550008FFF012384F83D30002010BD80F83C301F
:1015600000F06CFDEEE70120704770477047704750
:101570002DE9F04804460168836802691343426913
:101580001343C26913430868A24A024013430B6025
:101590002268536823F44053E1680B435360A16908
:1015A00022689D4B9A4201D0236A1943936823F421
:1015B00030630B4393602368984A934227D0984A3C
:1015C000934238D0974A93424ED0974A934261D083
:1015D000964A934274D0904A934200F08A80102534
:1015E0008D4A934200F0AA80E369B3F5004F00F002
:1015F0003581082D00F2BF81DFE815F07F019501EC
:101600009F01BD01AA01BD01BD01BD01B40102F5EB
:101610005842D2F8882002F00302032A09D8DFE8F2
:1016200002F0020481060125DAE70425D8E708253F
:10163000D6E71025D4E702F5E632D2F8882002F08A
:101640000C020C2A0ED8DFE802F0070D0D0D090D73
:101650000D0D6F0D0D0D0B000025C1E70425BFE733
:101660000825BDE71025BBE702F5E432D2F8882053
:1016700002F03002102A09D005D9202A56D0302A8B
:1016800006D10825ACE71AB90025A9E70425A7E784
:101690001025A5E702F5E232D2F8882002F0C00258
:1016A000402A09D005D9802A42D0C02A06D108256F
:1016B00096E71AB9002593E7042591E710258FE7EF
:1016C00002F5E032D2F8882002F44072B2F5807F51
:1016D0000BD007D9B2F5007F2CD0B2F5407F06D1F0
:1016E00008257DE71AB900257AE7042578E7102553
:1016F00076E702F5C832D2F8882002F44062B2F5EB
:10170000806F0BD007D9B2F5006F15D0B2F5406FDE
:1017100006D1082564E71AB9002561E704255FE7CB
:1017200010255DE702255BE7022559E7022557E70B
:10173000022555E7022553E7022551E7082D00F25F
:101740001D81DFE815F00C001B0114001B011100C6
:101750001B011B011B0109004FF4004008E0FFF7CB
:1017600063FD28B90020D9E0FFF736F9F9E73048E2
:10177000626802EB4203834200F20281B0EB023F57
:1017800000F20081082D66D8DFE805F005652065C8
:10179000306565655800FFF747FD0025070E060216
:1017A000626850082B4616EB000B47F1000C5846B8
:1017B0006146FEF70DFD03462846A3F540711D4A1C
:1017C000914200F2E1802268D360A7E0560800252C
:1017D0002B46DFF864B04FF0000C1BEB06004CF119
:1017E0000001FEF7F5FC03462846E6E7FFF7F4F8AC
:1017F0000025070E0602626850082B4616EB000B08
:1018000047F1000C58466146FEF7E2FC03462846C5
:10181000D3E700BFF369FFEF0080004000380140CC
:101820000044004000480040004C00400050004090
:101830000024F400FFFC0F00000024F450080027EF
:1018400000252B4610F5000047F10001FEF7C0FC13
:1018500003462846B1E701200023AEE7082D49D80A
:10186000DFE805F0051E2948344848483F00FFF7E7
:10187000DBFC6268530803EB4003B3FBF2F39BB25B
:101880000020A3F110014FF6EF7291427ED89AB278
:1018900022F00F02C3F3420313432268D3603DE0FA
:1018A000FFF7D4FC6268530803EB4003B3FBF2F389
:1018B0009BB20020E5E76268530803F1F47303F577
:1018C0009043B3FBF2F39BB20020DAE7FFF784F812
:1018D0006268530803EB4003B3FBF2F39BB20020B2
:1018E000CFE76268530803F58033B3FBF2F39BB292
:1018F0000020C6E701200023C3E7FFF795FC6368DB
:1019000000EB5302B2FBF3F292B20020A2F11001FD
:101910004FF6EF7399423BD82368DA6000222266C3
:101920006266BDE8F088FFF791FC636800EB530244
:10193000B2FBF3F292B20020E8E763685A0802F5BE
:10194000740202F51052B2FBF3F292B20020DDE70E
:10195000FFF742F8636800EB5302B2FBF3F292B276
:101960000020D3E763685A0802F50042B2FBF3F2A5
:1019700092B20020CAE701200022C7E70120CDE78C
:101980000120CBE70120C9E70120C7E70120C5E717
:101990000120C3E7436A13F0010F06D002685368C1
:1019A00023F40033816A0B435360436A13F0020F40
:1019B00006D00268536823F48033C16A0B43536036
:1019C000436A13F0040F06D00268536823F480239F
:1019D000016B0B435360436A13F0080F06D0026893
:1019E000536823F40043416B0B435360436A13F085
:1019F000100F06D00268936823F48053816B0B4369
:101A00009360436A13F0200F06D00268936823F4B2
:101A10000053C16B0B439360436A13F0400F0AD02D
:101A20000268536823F48013016C0B435360036C0A
:101A3000B3F5801F0BD0436A13F0800F06D0026805
:101A4000536823F40023816C0B4353607047026892
:101A5000536823F4C003416C0B435360EBE72DE95B
:101A6000F04104460F4616469846069D2368DB69FA
:101A700037EA03030CBF01230023B3423AD1B5F187
:101A8000FF3FF3D0FEF7C6FDA0EB0800A8421FD829
:101A9000F5B123681A6812F0040FE7D0DA6912F47E
:101AA000006FE3D04FF400621A622268136823F4D7
:101AB000D07313602268936823F00103936020239E
:101AC0006367A367E367002384F87030032012E0A4
:101AD0002268136823F4D07313602268936823F09C
:101AE0000103936020236367A367002384F87030A9
:101AF000032000E00020BDE8F0812DE9F04182B034
:101B00001E46436F202B55D104460D4690460029B2
:101B100055D0002A55D090F87030012B53D00123B6
:101B200080F870300023C36721234367FEF772FDFE
:101B30000746A4F85080A4F85280A368B3F5805FEC
:101B400005D04FF00008002384F8703013E02369BB
:101B500013B14FF00008F6E7A8460025F3E738F880
:101B6000023B2268C3F308031385B4F85230013BEB
:101B70009BB2A4F85230B4F852309BB273B10096C5
:101B80003B46002280212046FFF769FFE8B9002D7F
:101B9000E5D0236815F8012B1A85E6E700963B4649
:101BA000002240212046FFF75AFF034678B9202241
:101BB000626700E00223184602B0BDE8F08101230D
:101BC000F9E70123F7E70223F5E70323F3E703230C
:101BD000F1E730B583B004460023C367FEF71AFD72
:101BE000054623681B6813F0080F0CD123681B6897
:101BF00013F0040F15D120236367A367002084F836
:101C0000700003B030BD6FF07E43009303460022A6
:101C10004FF400112046FFF722FF0028E6D00320F2
:101C2000EFE76FF07E4300932B4600224FF48001D4
:101C30002046FFF714FF0028DDD00320E1E768B35A
:101C400010B50446436F03B3242363672268136807
:101C500023F0010313602046FFF78AFC012813D00C
:101C6000636ABBB92268536823F4904353602268C7
:101C7000936823F02A0393602268136843F00103FA
:101C800013602046FFF7A5FF10BD80F8703000F00C
:101C9000EFF9D9E72046FFF77DFEE3E70120704723
:101CA00008B5FEF7ABFCFEF74AFD08BD08B50122FA
:101CB0004FF480714FF09040FEF72AFE0548FFF781
:101CC00009FB00224FF480714FF09040FEF720FE98
:101CD00008BD00BF28010020F8B5344E344D4FF048
:101CE000FF333288334909682846FFF706FF324C34
:101CF00064273A460021204600F08AFAFEF76CFE7F
:101D000002462E49204600F08BFA2046FEF7E0FB03
:101D100082B232804FF0FF3321462846FFF7EDFEB6
:101D20003A460021204600F073FAFFF777FA0246A0
:101D30002349204600F074FA2046FEF7C9FB82B220
:101D400032804FF0FF3321462846FFF7D6FE3A4651
:101D50000021204600F05CFAFFF766FA02461949B6
:101D6000204600F05DFA2046FEF7B2FB82B23280D8
:101D70004FF0FF3321462846FFF7BFFE3A460021C9
:101D8000204600F045FAFFF761FA02460E49204668
:101D900000F046FA2046FEF79BFB82B232804FF0FD
:101DA000FF3321462846FFF7A8FEF8BDAC0000200F
:101DB0006801002020000020C4000020902A0008B4
:101DC000A02A0008AC2A0008BC2A00082DE9F0412E
:101DD00090B0204BDA6C42F00102DA64DB6C03F065
:101DE00001030093009B4FF02008CDF82C800125C3
:101DF0000C9500240D940BA94FF09040FEF7A4FC25
:101E00004FF4807606960795089406A94FF0904007
:101E1000FEF79AFC4FF4007701970295039401A90D
:101E20004FF09040FEF790FC224641464FF0904024
:101E3000FEF76EFD224639464FF09040FEF768FDF2
:101E4000224631464FF09040FEF762FD10B0BDE8EB
:101E5000F08100BF0010024010B5084C2046FEF78C
:101E600037FB4FF0FF3382B221460548FFF745FEAE
:101E700020214FF09040FEF750FD10BD08000020DB
:101E80006801002080B5144C3C220021204600F05F
:101E9000BFF9124D283C05F120072E460FCE2060D9
:101EA0006160A260E36035461034BE42F5D103CDD7
:101EB000206061600A4C2046FEF70AFB82B2094BA3
:101EC0001A804FF0FF3321460748FFF716FE0A201D
:101ED000FEF7A6FBFEE700BFEC000020CC2A0008BE
:101EE000C4000020AC0000206801002008B50748AD
:101EF000074B03603C23436040F2AF43C360FFF7EE
:101F00001BFB00B908BDFFF7BDFF00BF2801002083
:101F10000010004000B597B04022002106A800F054
:101F200077F9022305934FF48073089305A8FEF711
:101F3000ADFDC8B90F230093012301930021029145
:101F4000039104916846FFF7BDF878B9FFF766F989
:101F5000074BA3FB00308009FEF7CAFB0420FEF705
:101F6000DDFB17B05DF804FBFFF78CFFFFF78AFF7E
:101F7000D34D621008B50948094B03604FF4E133B3
:101F8000436000238360C36003610C234361FFF758
:101F900056FE00B908BDFFF775FF00BF68010020BD
:101FA0000044004008B5FEF713FBFFF7B3FFFFF74F
:101FB0000DFFFFF7DFFFFFF78FFE6420FEF730FB1A
:101FC000FFF794FF1748FFF753F908B1FFF75AFFDF
:101FD0000024154B1C611348FFF762F9134E52227F
:101FE0002146304600F014F9A6F11205104C0FCC32
:101FF00046F8120C46F80E1C46F80A2C46F8063C29
:10200000238826F8023C2846FEF762FA82B2094B82
:102010001A804FF0FF3329460748FFF76EFDFEF7A1
:1020200083FCFEE72801002000100040D6000020BD
:10203000F42A0008AC0000206801002000B583B03D
:102040000A4B9A6D42F010029A659B6D03F01003E3
:102050000193019B3620FEF73DFB00220F21362025
:10206000FEF704FB03B05DF804FB00BF0010024064
:1020700010B588B01A4B9A6D42F400329A659A6D89
:1020800002F400320192019ADA6C42F00102DA6441
:10209000DB6C03F001030293029B042303930223EE
:1020A000049301230593002406940723079303A9AF
:1020B0004FF09040FEF748FB3620FEF70BFB08235D
:1020C000039303A94FF09040FEF73EFB2620FEF756
:1020D00001FB22460F212620FEF7C8FA08B010BDEA
:1020E0000010024008B503460B4A126842B10A4A82
:1020F000106803446A46934206D8074A136008BD35
:10210000054A06491160F2E700F058F80C23036015
:102110004FF0FF30F3E700BFB0000020F0010020D7
:102120000F49D1F8883043F47003C1F888300D4B63
:102130001A6842F001021A60002098601A6822F0C2
:10214000A85222F410221A604FF48052DA601A6802
:1021500022F480221A6098614FF000638B60704710
:1021600000ED00E000100240DFF834D0002103E071
:102170000C4B5B58435004310B480C4B42189A42AD
:10218000F6D30B4A02E0002342F8043B094B9A4283
:10219000F9D3FFF7C5FF00F017F8FFF703FFFEE7DD
:1021A00000800120682B0008000000209000002023
:1021B00090000020EC010020FEE70000014B1868B1
:1021C000704700BF2800002070B50D4E0D4CA41BB9
:1021D000A4100025A54209D10B4E0C4C00F026FCA2
:1021E000A41BA4100025A54205D170BD56F82530CA
:1021F00098470135EEE756F8253098470135F2E764
:10220000582B0008582B0008582B00085C2B00089E
:1022100002440346934200D1704703F8011BF9E7DB
:102220000EB400B59CB01DAB029006906FF000415B
:10223000094807910491094953F8042B0591006856
:10224000019302A900F066F8029B00221A701CB0EC
:102250005DF804EB03B07047280000200802FFFF80
:102260002DE9F0478E689E4282460C46904699467C
:1022700037D88A8912F4906F31D0256809696F1AAE
:102280006569022305EB450595FBF3F509F10103AB
:102290003B449D4238BF1D46530530D5294600F0CA
:1022A0002BFB064650B90C23CAF80030A38943F033
:1022B0004003A3814FF0FF30BDE8F0873A46216923
:1022C00000F0A8FAA38923F4906343F08003A3816C
:1022D000266165613E44ED1B2660A5604E464E4575
:1022E00000D94E4632464146206800F09EFAA36867
:1022F0009B1BA36023681E4426600020DCE72A465F
:1023000000F054FB06460028E2D12169504600F057
:10231000A5FAC8E72DE9F04F1D468B891F069DB031
:1023200080460C4616460FD50B696BB9402100F06C
:10233000E3FA2060206128B90C23C8F800304FF080
:10234000FF30C8E0402363610023099320238DF808
:10235000293030238DF82A3003954FF0010B374692
:102360003D4615F8013B0BB1252B3ED1B7EB060AD4
:102370000BD05346324621464046FFF771FF0130ED
:1023800000F0A480099B534409933B78002B00F094
:102390009D8000234FF0FF32CDE90523049307937E
:1023A0008DF853301A932F46052217F8011B504819
:1023B000FEF796F8049BD0B9D90644BF20228DF8C9
:1023C00053201A0744BF2B228DF853202A782A2A3B
:1023D00015D0079A2F4600200A25394611F8013BEF
:1023E000303B092B4DD9B8B10FE02F46B8E7404A32
:1023F000801A0BFA00F0184304903D46D3E7039A85
:10240000111D12680391002A01DB079204E0524279
:1024100043F00203079204933B782E2B0CD17B7878
:102420002A2B33D1039B1A1D1B680392002BB8BFC4
:102430004FF0FF33023705932E4D3978032228469B
:10244000FEF74EF838B14023401B03FA00F0049B1E
:10245000034301370493397827488DF82810062262
:102460007E1CFEF73DF8002838D0244B13BB039B9D
:10247000073323F0070308330393099B4B44099365
:102480006DE705FB023201200F46A6E70023013766
:10249000059319460A25384610F8012B303A092AC7
:1024A00003D9002BC8D00591C6E705FB0121012304
:1024B0000746F0E703AB00932246114B04A94046C0
:1024C000AFF30080B0F1FF3F8146D6D1A3895B0610
:1024D0003FF535AF09981DB0BDE8F08F03AB009311
:1024E0002246074B04A9404600F082F8EAE700BF05
:1024F0001C2B0008222B0008262B000800000000DF
:10250000612200082DE9F04791461F468A680B6951
:10251000DDF820809342B8BF1346C9F8003091F827
:10252000432006460C4612B10133C9F80030236837
:10253000990642BFD9F800300233C9F80030256847
:1025400015F0060507D104F1190AE368D9F800204F
:102550009B1AAB4228DC94F843302268003318BF42
:10256000012392062DD404F1430239463046C04778
:10257000013020D02368E568D9F8002003F0060375
:10258000042B08BFAD1AA36822690CBF25EAE575C4
:1025900000259342C4BF9B1AED184FF000091A346E
:1025A0004D451AD1002008E00123524639463046F5
:1025B000C047013003D14FF0FF30BDE8F08701354F
:1025C000C3E7E1185A1C302081F84300224494F8F4
:1025D000451082F843100233C5E7012322463946ED
:1025E0003046C0470130E6D009F10109D8E70000C4
:1025F0002DE9F04301F1430C0C46097E85B06E29AC
:102600001746064698460C9A00F0B38022D86329F4
:1026100036D00AD8002900F0B980582900F083800C
:1026200004F1420584F8421032E0642901D069299E
:10263000F6D120681368050603F104012AD51B684A
:102640001160002B03DA2D225B4284F843206F488F
:102650000A2239E0732900F09D8008D86F2920D024
:102660007029DDD1236843F02003236003E075293E
:1026700017D07829D4D1782384F84530644855E0C0
:102680001368191D1B68116004F1420584F842307B
:1026900001238CE01B68116010F0400F18BF1BB2C3
:1026A000CFE713682568181D1060280601D51B6840
:1026B00002E06806FBD51B8854486F2914BF0A2224
:1026C0000822002184F843106568A560002DC0F23F
:1026D0009580216821F004012160002B3DD1002D5F
:1026E00040F08E806546082A0BD12368DB0708D5A9
:1026F000236962689A42DEBF302305F8013C05F188
:10270000FF35ACEB05032361CDF800803B4603AAFF
:1027100021463046FFF7F6FE01304DD14FF0FF3035
:1027200005B0BDE8F083394884F845101368216886
:102730001D1D1B6815600A060BD5CA0744BF41F072
:10274000200121601BB9226822F0200222601022A1
:10275000B7E74D0648BF9BB2EFE76546B3FBF2F122
:1027600002FB1133C35C05F8013D0B460029F5D18E
:10277000B9E7136825686169181D106028061B6891
:1027800001D5196002E06A06FBD519800023236198
:102790006546B9E71368191D11601D68626800215C
:1027A0002846FDF79DFE08B1401B60606368236109
:1027B000002384F84330A7E723692A463946304688
:1027C000C0470130AAD023689B0713D4E068039B5D
:1027D0009842B8BF1846A3E701234A463946304617
:1027E000C04701309AD00135E368039A9B1AAB4287
:1027F000F2DCEBE7002504F11909F5E7002BACD179
:10280000037884F8423004F142056CE72D2B000870
:102810003E2B000810B5431E0A44914200D110BD62
:1028200011F8014B03F8014FF7E7884210B501EBAF
:10283000020307D8421E99420AD011F8014B02F850
:10284000014FF8E78342F5D98118D21AD34200D15B
:1028500010BD13F8014D01F8014DF7E738B50546F5
:10286000002945D051F8043C0C1F002BB8BFE418D8
:1028700000F0D2F81F4A1368104633B96360146041
:102880002846BDE8384000F0C8B8A3420CD92168FA
:102890006218934204BF1A685B68636004BF5218F1
:1028A00022600460ECE713465A680AB1A242FAD9E2
:1028B00019685818A0420BD1206801445818824268
:1028C0001960DDD1106852685A6001441960D7E779
:1028D00002D90C232B60D3E7206821188A4204BF59
:1028E00011685268626004BF091821605C60C7E724
:1028F00038BD00BFB800002070B5CD1C25F0030521
:1029000008350C2D38BF0C25002D064601DBA942E9
:1029100003D90C233360002070BD00F07DF8214AFC
:102920001468214691B9204C23681BB9304600F049
:1029300063F820602946304600F05EF8431C24D13D
:102940000C233360304600F068F8E4E70B685B1B4B
:1029500018D40B2B0FD90B60CD50CC18304600F09B
:102960005CF804F10B00231D20F00700C31AD3D03C
:102970005A42E250D0E78C424B6816BF6360136046
:102980000C46EBE70C464968CCE7C41C24F0030472
:10299000A04205D0211A304600F02EF80130CFD0E9
:1029A0002560DBE7B8000020BC000020F8B5074632
:1029B00014460E4621B91146BDE8F840FFF79CBF0A
:1029C00022B9FFF74BFF25462846F8BD00F026F850
:1029D000A0420FD221463846FFF78EFF0546002859
:1029E000F2D031462246FFF715FF31463846FFF751
:1029F00035FFE9E73546E7E738B5064C00230546DD
:102A000008462360FFF76EFB431C02D1236803B125
:102A10002B6038BDE80100207047704751F8043C36
:102A2000181F002BBCBF0B58C0187047F8B500BF6B
:102A3000F8BC08BC9E467047F8B500BFF8BC08BC9F
:082A40009E46704700000000F3
:102A4800A0860100400D0300801A060000350C0026
:102A580040420F0080841E0000093D0000127A00E9
:102A68000024F40000366E010048E801006CDC0226
:102A78000000000000000000010203040607080926
:102A88000000000001020304535953434C4B3A2001
:102A9800256C640D0A00000048434C4B3A20256C15
:102AA800640D0A0050434C4B313A20256C640D0AE2
:102AB8000000000050434C4B323A20256C640D0A4C
:102AC8000A000000536F6D657468696E672077654A
:102AD8006E742077726F6E672C20737475636B2029
:102AE800696E206572726F722020210054696D65CD
:102AF8007220696E697420646F6E65200A00000098
:102B080048656C6C6F202C207265616479202120E7
:102B18000D0A0000232D302B2000686C4C006566E0
:102B28006745464700303132333435363738394116
:102B3800424344454600303132333435363738392C
:082B4800616263646566000030
:082B5000B0D6FF7F0100000078
:082B5800B501000800000000B7
:082B60009101000800000000D3
:102B6800010000001000000054657374696E67204E
:102B7800534C4545504F4E45584954200D0A0000C6
:102B8800082B000800093D002C0000200000000070
:102B9800000000000000000000000000000000002D
:102BA800000000000000000000000000000000001D
:102BB800000000000000000000000000000000000D
:102BC80000000000000000000000000000000000FD
:102BD80000000000000000000000000000000000ED
:102BE80000000000000000000000000000000000DD
:040000050800216965
:00000001FF
